{
	"Basic Solidity/contracts/p.sol": {
		"PeopleStorage": {
			"abi": [
				{
					"inputs": [
						{
							"internalType": "string",
							"name": "_name",
							"type": "string"
						},
						{
							"internalType": "uint256",
							"name": "_favoriteNumber",
							"type": "uint256"
						}
					],
					"name": "addPerson",
					"outputs": [],
					"stateMutability": "nonpayable",
					"type": "function"
				},
				{
					"inputs": [
						{
							"internalType": "uint256",
							"name": "index",
							"type": "uint256"
						}
					],
					"name": "getPerson",
					"outputs": [
						{
							"internalType": "string",
							"name": "",
							"type": "string"
						},
						{
							"internalType": "uint256",
							"name": "",
							"type": "uint256"
						}
					],
					"stateMutability": "view",
					"type": "function"
				},
				{
					"inputs": [
						{
							"internalType": "string",
							"name": "",
							"type": "string"
						}
					],
					"name": "nameToFavoriteNumber",
					"outputs": [
						{
							"internalType": "uint256",
							"name": "",
							"type": "uint256"
						}
					],
					"stateMutability": "view",
					"type": "function"
				},
				{
					"inputs": [
						{
							"internalType": "uint256",
							"name": "",
							"type": "uint256"
						}
					],
					"name": "people",
					"outputs": [
						{
							"internalType": "uint256",
							"name": "favoriteNumber",
							"type": "uint256"
						},
						{
							"internalType": "string",
							"name": "name",
							"type": "string"
						}
					],
					"stateMutability": "view",
					"type": "function"
				}
			],
			"devdoc": {
				"kind": "dev",
				"methods": {},
				"version": 1
			},
			"evm": {
				"assembly": "    /* \"Basic Solidity/contracts/p.sol\":61:737  contract PeopleStorage {... */\n  mstore(0x40, 0x80)\n  callvalue\n  dup1\n  iszero\n  tag_1\n  jumpi\n  revert(0x00, 0x00)\ntag_1:\n  pop\n  dataSize(sub_0)\n  dup1\n  dataOffset(sub_0)\n  0x00\n  codecopy\n  0x00\n  return\nstop\n\nsub_0: assembly {\n        /* \"Basic Solidity/contracts/p.sol\":61:737  contract PeopleStorage {... */\n      mstore(0x40, 0x80)\n      callvalue\n      dup1\n      iszero\n      tag_1\n      jumpi\n      revert(0x00, 0x00)\n    tag_1:\n      pop\n      jumpi(tag_2, lt(calldatasize, 0x04))\n      shr(0xe0, calldataload(0x00))\n      dup1\n      0x246982c4\n      eq\n      tag_3\n      jumpi\n      dup1\n      0x6f760f41\n      eq\n      tag_4\n      jumpi\n      dup1\n      0x8bab8dd5\n      eq\n      tag_5\n      jumpi\n      dup1\n      0x9e7a13ad\n      eq\n      tag_6\n      jumpi\n    tag_2:\n      revert(0x00, 0x00)\n        /* \"Basic Solidity/contracts/p.sol\":561:734  function getPerson(uint256 index) public view returns (string memory, uint256) {... */\n    tag_3:\n      tag_7\n      0x04\n      dup1\n      calldatasize\n      sub\n      dup2\n      add\n      swap1\n      tag_8\n      swap2\n      swap1\n      tag_9\n      jump\t// in\n    tag_8:\n      tag_10\n      jump\t// in\n    tag_7:\n      mload(0x40)\n      tag_11\n      swap3\n      swap2\n      swap1\n      tag_12\n      jump\t// in\n    tag_11:\n      mload(0x40)\n      dup1\n      swap2\n      sub\n      swap1\n      return\n        /* \"Basic Solidity/contracts/p.sol\":334:524  function addPerson(string memory _name, uint256 _favoriteNumber) public {... */\n    tag_4:\n      tag_13\n      0x04\n      dup1\n      calldatasize\n      sub\n      dup2\n      add\n      swap1\n      tag_14\n      swap2\n      swap1\n      tag_15\n      jump\t// in\n    tag_14:\n      tag_16\n      jump\t// in\n    tag_13:\n      stop\n        /* \"Basic Solidity/contracts/p.sol\":252:306  mapping(string => uint256) public nameToFavoriteNumber */\n    tag_5:\n      tag_17\n      0x04\n      dup1\n      calldatasize\n      sub\n      dup2\n      add\n      swap1\n      tag_18\n      swap2\n      swap1\n      tag_19\n      jump\t// in\n    tag_18:\n      tag_20\n      jump\t// in\n    tag_17:\n      mload(0x40)\n      tag_21\n      swap2\n      swap1\n      tag_22\n      jump\t// in\n    tag_21:\n      mload(0x40)\n      dup1\n      swap2\n      sub\n      swap1\n      return\n        /* \"Basic Solidity/contracts/p.sol\":205:227  Person[] public people */\n    tag_6:\n      tag_23\n      0x04\n      dup1\n      calldatasize\n      sub\n      dup2\n      add\n      swap1\n      tag_24\n      swap2\n      swap1\n      tag_9\n      jump\t// in\n    tag_24:\n      tag_25\n      jump\t// in\n    tag_23:\n      mload(0x40)\n      tag_26\n      swap3\n      swap2\n      swap1\n      tag_27\n      jump\t// in\n    tag_26:\n      mload(0x40)\n      dup1\n      swap2\n      sub\n      swap1\n      return\n        /* \"Basic Solidity/contracts/p.sol\":561:734  function getPerson(uint256 index) public view returns (string memory, uint256) {... */\n    tag_10:\n        /* \"Basic Solidity/contracts/p.sol\":616:629  string memory */\n      0x60\n        /* \"Basic Solidity/contracts/p.sol\":631:638  uint256 */\n      0x00\n        /* \"Basic Solidity/contracts/p.sol\":651:666  Person memory p */\n      0x00\n        /* \"Basic Solidity/contracts/p.sol\":669:675  people */\n      0x00\n        /* \"Basic Solidity/contracts/p.sol\":676:681  index */\n      dup5\n        /* \"Basic Solidity/contracts/p.sol\":669:682  people[index] */\n      dup2\n      sload\n      dup2\n      lt\n      tag_29\n      jumpi\n      tag_30\n      tag_31\n      jump\t// in\n    tag_30:\n    tag_29:\n      swap1\n      0x00\n      mstore\n      keccak256(0x00, 0x20)\n      swap1\n      0x02\n      mul\n      add\n        /* \"Basic Solidity/contracts/p.sol\":651:682  Person memory p = people[index] */\n      mload(0x40)\n      dup1\n      0x40\n      add\n      0x40\n      mstore\n      swap1\n      dup2\n      0x00\n      dup3\n      add\n      sload\n      dup2\n      mstore\n      0x20\n      add\n      0x01\n      dup3\n      add\n      dup1\n      sload\n      tag_33\n      swap1\n      tag_34\n      jump\t// in\n    tag_33:\n      dup1\n      0x1f\n      add\n      0x20\n      dup1\n      swap2\n      div\n      mul\n      0x20\n      add\n      mload(0x40)\n      swap1\n      dup2\n      add\n      0x40\n      mstore\n      dup1\n      swap3\n      swap2\n      swap1\n      dup2\n      dup2\n      mstore\n      0x20\n      add\n      dup3\n      dup1\n      sload\n      tag_35\n      swap1\n      tag_34\n      jump\t// in\n    tag_35:\n      dup1\n      iszero\n      tag_36\n      jumpi\n      dup1\n      0x1f\n      lt\n      tag_37\n      jumpi\n      0x0100\n      dup1\n      dup4\n      sload\n      div\n      mul\n      dup4\n      mstore\n      swap2\n      0x20\n      add\n      swap2\n      jump(tag_36)\n    tag_37:\n      dup3\n      add\n      swap2\n      swap1\n      0x00\n      mstore\n      keccak256(0x00, 0x20)\n      swap1\n    tag_38:\n      dup2\n      sload\n      dup2\n      mstore\n      swap1\n      0x01\n      add\n      swap1\n      0x20\n      add\n      dup1\n      dup4\n      gt\n      tag_38\n      jumpi\n      dup3\n      swap1\n      sub\n      0x1f\n      and\n      dup3\n      add\n      swap2\n    tag_36:\n      pop\n      pop\n      pop\n      pop\n      pop\n      dup2\n      mstore\n      pop\n      pop\n      swap1\n      pop\n        /* \"Basic Solidity/contracts/p.sol\":701:702  p */\n      dup1\n        /* \"Basic Solidity/contracts/p.sol\":701:707  p.name */\n      0x20\n      add\n      mload\n        /* \"Basic Solidity/contracts/p.sol\":709:710  p */\n      dup2\n        /* \"Basic Solidity/contracts/p.sol\":709:725  p.favoriteNumber */\n      0x00\n      add\n      mload\n        /* \"Basic Solidity/contracts/p.sol\":693:726  return (p.name, p.favoriteNumber) */\n      swap3\n      pop\n      swap3\n      pop\n      pop\n        /* \"Basic Solidity/contracts/p.sol\":561:734  function getPerson(uint256 index) public view returns (string memory, uint256) {... */\n      swap2\n      pop\n      swap2\n      jump\t// out\n        /* \"Basic Solidity/contracts/p.sol\":334:524  function addPerson(string memory _name, uint256 _favoriteNumber) public {... */\n    tag_16:\n        /* \"Basic Solidity/contracts/p.sol\":417:423  people */\n      0x00\n        /* \"Basic Solidity/contracts/p.sol\":429:459  Person(_favoriteNumber, _name) */\n      mload(0x40)\n      dup1\n      0x40\n      add\n      0x40\n      mstore\n      dup1\n        /* \"Basic Solidity/contracts/p.sol\":436:451  _favoriteNumber */\n      dup4\n        /* \"Basic Solidity/contracts/p.sol\":429:459  Person(_favoriteNumber, _name) */\n      dup2\n      mstore\n      0x20\n      add\n        /* \"Basic Solidity/contracts/p.sol\":453:458  _name */\n      dup5\n        /* \"Basic Solidity/contracts/p.sol\":429:459  Person(_favoriteNumber, _name) */\n      dup2\n      mstore\n      pop\n        /* \"Basic Solidity/contracts/p.sol\":417:460  people.push(Person(_favoriteNumber, _name)) */\n      swap1\n      dup1\n      0x01\n      dup2\n      sload\n      add\n      dup1\n      dup3\n      sstore\n      dup1\n      swap2\n      pop\n      pop\n      0x01\n      swap1\n      sub\n      swap1\n      0x00\n      mstore\n      keccak256(0x00, 0x20)\n      swap1\n      0x02\n      mul\n      add\n      0x00\n      swap1\n      swap2\n      swap1\n      swap2\n      swap1\n      swap2\n      pop\n      0x00\n      dup3\n      add\n      mload\n      dup2\n      0x00\n      add\n      sstore\n      0x20\n      dup3\n      add\n      mload\n      dup2\n      0x01\n      add\n      swap1\n      dup2\n      tag_41\n      swap2\n      swap1\n      tag_42\n      jump\t// in\n    tag_41:\n      pop\n      pop\n      pop\n        /* \"Basic Solidity/contracts/p.sol\":501:516  _favoriteNumber */\n      dup1\n        /* \"Basic Solidity/contracts/p.sol\":471:491  nameToFavoriteNumber */\n      0x01\n        /* \"Basic Solidity/contracts/p.sol\":492:497  _name */\n      dup4\n        /* \"Basic Solidity/contracts/p.sol\":471:498  nameToFavoriteNumber[_name] */\n      mload(0x40)\n      tag_43\n      swap2\n      swap1\n      tag_44\n      jump\t// in\n    tag_43:\n      swap1\n      dup2\n      mstore\n      0x20\n      add\n      mload(0x40)\n      dup1\n      swap2\n      sub\n      swap1\n      keccak256\n        /* \"Basic Solidity/contracts/p.sol\":471:516  nameToFavoriteNumber[_name] = _favoriteNumber */\n      dup2\n      swap1\n      sstore\n      pop\n        /* \"Basic Solidity/contracts/p.sol\":334:524  function addPerson(string memory _name, uint256 _favoriteNumber) public {... */\n      pop\n      pop\n      jump\t// out\n        /* \"Basic Solidity/contracts/p.sol\":252:306  mapping(string => uint256) public nameToFavoriteNumber */\n    tag_20:\n      0x01\n      dup2\n      dup1\n      mload\n      0x20\n      dup2\n      add\n      dup3\n      add\n      dup1\n      mload\n      dup5\n      dup3\n      mstore\n      0x20\n      dup4\n      add\n      0x20\n      dup6\n      add\n      keccak256\n      dup2\n      dup4\n      mstore\n      dup1\n      swap6\n      pop\n      pop\n      pop\n      pop\n      pop\n      pop\n      0x00\n      swap2\n      pop\n      swap1\n      pop\n      sload\n      dup2\n      jump\t// out\n        /* \"Basic Solidity/contracts/p.sol\":205:227  Person[] public people */\n    tag_25:\n      0x00\n      dup2\n      dup2\n      sload\n      dup2\n      lt\n      tag_45\n      jumpi\n      0x00\n      dup1\n      revert\n    tag_45:\n      swap1\n      0x00\n      mstore\n      keccak256(0x00, 0x20)\n      swap1\n      0x02\n      mul\n      add\n      0x00\n      swap2\n      pop\n      swap1\n      pop\n      dup1\n      0x00\n      add\n      sload\n      swap1\n      dup1\n      0x01\n      add\n      dup1\n      sload\n      tag_47\n      swap1\n      tag_34\n      jump\t// in\n    tag_47:\n      dup1\n      0x1f\n      add\n      0x20\n      dup1\n      swap2\n      div\n      mul\n      0x20\n      add\n      mload(0x40)\n      swap1\n      dup2\n      add\n      0x40\n      mstore\n      dup1\n      swap3\n      swap2\n      swap1\n      dup2\n      dup2\n      mstore\n      0x20\n      add\n      dup3\n      dup1\n      sload\n      tag_48\n      swap1\n      tag_34\n      jump\t// in\n    tag_48:\n      dup1\n      iszero\n      tag_49\n      jumpi\n      dup1\n      0x1f\n      lt\n      tag_50\n      jumpi\n      0x0100\n      dup1\n      dup4\n      sload\n      div\n      mul\n      dup4\n      mstore\n      swap2\n      0x20\n      add\n      swap2\n      jump(tag_49)\n    tag_50:\n      dup3\n      add\n      swap2\n      swap1\n      0x00\n      mstore\n      keccak256(0x00, 0x20)\n      swap1\n    tag_51:\n      dup2\n      sload\n      dup2\n      mstore\n      swap1\n      0x01\n      add\n      swap1\n      0x20\n      add\n      dup1\n      dup4\n      gt\n      tag_51\n      jumpi\n      dup3\n      swap1\n      sub\n      0x1f\n      and\n      dup3\n      add\n      swap2\n    tag_49:\n      pop\n      pop\n      pop\n      pop\n      pop\n      swap1\n      pop\n      dup3\n      jump\t// out\n        /* \"#utility.yul\":7:82   */\n    tag_52:\n        /* \"#utility.yul\":40:46   */\n      0x00\n        /* \"#utility.yul\":73:75   */\n      0x40\n        /* \"#utility.yul\":67:76   */\n      mload\n        /* \"#utility.yul\":57:76   */\n      swap1\n      pop\n        /* \"#utility.yul\":7:82   */\n      swap1\n      jump\t// out\n        /* \"#utility.yul\":88:205   */\n    tag_53:\n        /* \"#utility.yul\":197:198   */\n      0x00\n        /* \"#utility.yul\":194:195   */\n      0x00\n        /* \"#utility.yul\":187:199   */\n      revert\n        /* \"#utility.yul\":211:328   */\n    tag_54:\n        /* \"#utility.yul\":320:321   */\n      0x00\n        /* \"#utility.yul\":317:318   */\n      0x00\n        /* \"#utility.yul\":310:322   */\n      revert\n        /* \"#utility.yul\":334:411   */\n    tag_55:\n        /* \"#utility.yul\":371:378   */\n      0x00\n        /* \"#utility.yul\":400:405   */\n      dup2\n        /* \"#utility.yul\":389:405   */\n      swap1\n      pop\n        /* \"#utility.yul\":334:411   */\n      swap2\n      swap1\n      pop\n      jump\t// out\n        /* \"#utility.yul\":417:539   */\n    tag_56:\n        /* \"#utility.yul\":490:514   */\n      tag_97\n        /* \"#utility.yul\":508:513   */\n      dup2\n        /* \"#utility.yul\":490:514   */\n      tag_55\n      jump\t// in\n    tag_97:\n        /* \"#utility.yul\":483:488   */\n      dup2\n        /* \"#utility.yul\":480:515   */\n      eq\n        /* \"#utility.yul\":470:533   */\n      tag_98\n      jumpi\n        /* \"#utility.yul\":529:530   */\n      0x00\n        /* \"#utility.yul\":526:527   */\n      0x00\n        /* \"#utility.yul\":519:531   */\n      revert\n        /* \"#utility.yul\":470:533   */\n    tag_98:\n        /* \"#utility.yul\":417:539   */\n      pop\n      jump\t// out\n        /* \"#utility.yul\":545:684   */\n    tag_57:\n        /* \"#utility.yul\":591:596   */\n      0x00\n        /* \"#utility.yul\":629:635   */\n      dup2\n        /* \"#utility.yul\":616:636   */\n      calldataload\n        /* \"#utility.yul\":607:636   */\n      swap1\n      pop\n        /* \"#utility.yul\":645:678   */\n      tag_100\n        /* \"#utility.yul\":672:677   */\n      dup2\n        /* \"#utility.yul\":645:678   */\n      tag_56\n      jump\t// in\n    tag_100:\n        /* \"#utility.yul\":545:684   */\n      swap3\n      swap2\n      pop\n      pop\n      jump\t// out\n        /* \"#utility.yul\":690:1019   */\n    tag_9:\n        /* \"#utility.yul\":749:755   */\n      0x00\n        /* \"#utility.yul\":798:800   */\n      0x20\n        /* \"#utility.yul\":786:795   */\n      dup3\n        /* \"#utility.yul\":777:784   */\n      dup5\n        /* \"#utility.yul\":773:796   */\n      sub\n        /* \"#utility.yul\":769:801   */\n      slt\n        /* \"#utility.yul\":766:885   */\n      iszero\n      tag_102\n      jumpi\n        /* \"#utility.yul\":804:883   */\n      tag_103\n      tag_53\n      jump\t// in\n    tag_103:\n        /* \"#utility.yul\":766:885   */\n    tag_102:\n        /* \"#utility.yul\":924:925   */\n      0x00\n        /* \"#utility.yul\":949:1002   */\n      tag_104\n        /* \"#utility.yul\":994:1001   */\n      dup5\n        /* \"#utility.yul\":985:991   */\n      dup3\n        /* \"#utility.yul\":974:983   */\n      dup6\n        /* \"#utility.yul\":970:992   */\n      add\n        /* \"#utility.yul\":949:1002   */\n      tag_57\n      jump\t// in\n    tag_104:\n        /* \"#utility.yul\":939:1002   */\n      swap2\n      pop\n        /* \"#utility.yul\":895:1012   */\n      pop\n        /* \"#utility.yul\":690:1019   */\n      swap3\n      swap2\n      pop\n      pop\n      jump\t// out\n        /* \"#utility.yul\":1025:1124   */\n    tag_58:\n        /* \"#utility.yul\":1077:1083   */\n      0x00\n        /* \"#utility.yul\":1111:1116   */\n      dup2\n        /* \"#utility.yul\":1105:1117   */\n      mload\n        /* \"#utility.yul\":1095:1117   */\n      swap1\n      pop\n        /* \"#utility.yul\":1025:1124   */\n      swap2\n      swap1\n      pop\n      jump\t// out\n        /* \"#utility.yul\":1130:1299   */\n    tag_59:\n        /* \"#utility.yul\":1214:1225   */\n      0x00\n        /* \"#utility.yul\":1248:1254   */\n      dup3\n        /* \"#utility.yul\":1243:1246   */\n      dup3\n        /* \"#utility.yul\":1236:1255   */\n      mstore\n        /* \"#utility.yul\":1288:1292   */\n      0x20\n        /* \"#utility.yul\":1283:1286   */\n      dup3\n        /* \"#utility.yul\":1279:1293   */\n      add\n        /* \"#utility.yul\":1264:1293   */\n      swap1\n      pop\n        /* \"#utility.yul\":1130:1299   */\n      swap3\n      swap2\n      pop\n      pop\n      jump\t// out\n        /* \"#utility.yul\":1305:1444   */\n    tag_60:\n        /* \"#utility.yul\":1394:1400   */\n      dup3\n        /* \"#utility.yul\":1389:1392   */\n      dup2\n        /* \"#utility.yul\":1384:1387   */\n      dup4\n        /* \"#utility.yul\":1378:1401   */\n      mcopy\n        /* \"#utility.yul\":1435:1436   */\n      0x00\n        /* \"#utility.yul\":1426:1432   */\n      dup4\n        /* \"#utility.yul\":1421:1424   */\n      dup4\n        /* \"#utility.yul\":1417:1433   */\n      add\n        /* \"#utility.yul\":1410:1437   */\n      mstore\n        /* \"#utility.yul\":1305:1444   */\n      pop\n      pop\n      pop\n      jump\t// out\n        /* \"#utility.yul\":1450:1552   */\n    tag_61:\n        /* \"#utility.yul\":1491:1497   */\n      0x00\n        /* \"#utility.yul\":1542:1544   */\n      0x1f\n        /* \"#utility.yul\":1538:1545   */\n      not\n        /* \"#utility.yul\":1533:1535   */\n      0x1f\n        /* \"#utility.yul\":1526:1531   */\n      dup4\n        /* \"#utility.yul\":1522:1536   */\n      add\n        /* \"#utility.yul\":1518:1546   */\n      and\n        /* \"#utility.yul\":1508:1546   */\n      swap1\n      pop\n        /* \"#utility.yul\":1450:1552   */\n      swap2\n      swap1\n      pop\n      jump\t// out\n        /* \"#utility.yul\":1558:1935   */\n    tag_62:\n        /* \"#utility.yul\":1646:1649   */\n      0x00\n        /* \"#utility.yul\":1674:1713   */\n      tag_110\n        /* \"#utility.yul\":1707:1712   */\n      dup3\n        /* \"#utility.yul\":1674:1713   */\n      tag_58\n      jump\t// in\n    tag_110:\n        /* \"#utility.yul\":1729:1800   */\n      tag_111\n        /* \"#utility.yul\":1793:1799   */\n      dup2\n        /* \"#utility.yul\":1788:1791   */\n      dup6\n        /* \"#utility.yul\":1729:1800   */\n      tag_59\n      jump\t// in\n    tag_111:\n        /* \"#utility.yul\":1722:1800   */\n      swap4\n      pop\n        /* \"#utility.yul\":1809:1874   */\n      tag_112\n        /* \"#utility.yul\":1867:1873   */\n      dup2\n        /* \"#utility.yul\":1862:1865   */\n      dup6\n        /* \"#utility.yul\":1855:1859   */\n      0x20\n        /* \"#utility.yul\":1848:1853   */\n      dup7\n        /* \"#utility.yul\":1844:1860   */\n      add\n        /* \"#utility.yul\":1809:1874   */\n      tag_60\n      jump\t// in\n    tag_112:\n        /* \"#utility.yul\":1899:1928   */\n      tag_113\n        /* \"#utility.yul\":1921:1927   */\n      dup2\n        /* \"#utility.yul\":1899:1928   */\n      tag_61\n      jump\t// in\n    tag_113:\n        /* \"#utility.yul\":1894:1897   */\n      dup5\n        /* \"#utility.yul\":1890:1929   */\n      add\n        /* \"#utility.yul\":1883:1929   */\n      swap2\n      pop\n        /* \"#utility.yul\":1650:1935   */\n      pop\n        /* \"#utility.yul\":1558:1935   */\n      swap3\n      swap2\n      pop\n      pop\n      jump\t// out\n        /* \"#utility.yul\":1941:2059   */\n    tag_63:\n        /* \"#utility.yul\":2028:2052   */\n      tag_115\n        /* \"#utility.yul\":2046:2051   */\n      dup2\n        /* \"#utility.yul\":2028:2052   */\n      tag_55\n      jump\t// in\n    tag_115:\n        /* \"#utility.yul\":2023:2026   */\n      dup3\n        /* \"#utility.yul\":2016:2053   */\n      mstore\n        /* \"#utility.yul\":1941:2059   */\n      pop\n      pop\n      jump\t// out\n        /* \"#utility.yul\":2065:2488   */\n    tag_12:\n        /* \"#utility.yul\":2206:2210   */\n      0x00\n        /* \"#utility.yul\":2244:2246   */\n      0x40\n        /* \"#utility.yul\":2233:2242   */\n      dup3\n        /* \"#utility.yul\":2229:2247   */\n      add\n        /* \"#utility.yul\":2221:2247   */\n      swap1\n      pop\n        /* \"#utility.yul\":2293:2302   */\n      dup2\n        /* \"#utility.yul\":2287:2291   */\n      dup2\n        /* \"#utility.yul\":2283:2303   */\n      sub\n        /* \"#utility.yul\":2279:2280   */\n      0x00\n        /* \"#utility.yul\":2268:2277   */\n      dup4\n        /* \"#utility.yul\":2264:2281   */\n      add\n        /* \"#utility.yul\":2257:2304   */\n      mstore\n        /* \"#utility.yul\":2321:2399   */\n      tag_117\n        /* \"#utility.yul\":2394:2398   */\n      dup2\n        /* \"#utility.yul\":2385:2391   */\n      dup6\n        /* \"#utility.yul\":2321:2399   */\n      tag_62\n      jump\t// in\n    tag_117:\n        /* \"#utility.yul\":2313:2399   */\n      swap1\n      pop\n        /* \"#utility.yul\":2409:2481   */\n      tag_118\n        /* \"#utility.yul\":2477:2479   */\n      0x20\n        /* \"#utility.yul\":2466:2475   */\n      dup4\n        /* \"#utility.yul\":2462:2480   */\n      add\n        /* \"#utility.yul\":2453:2459   */\n      dup5\n        /* \"#utility.yul\":2409:2481   */\n      tag_63\n      jump\t// in\n    tag_118:\n        /* \"#utility.yul\":2065:2488   */\n      swap4\n      swap3\n      pop\n      pop\n      pop\n      jump\t// out\n        /* \"#utility.yul\":2494:2611   */\n    tag_64:\n        /* \"#utility.yul\":2603:2604   */\n      0x00\n        /* \"#utility.yul\":2600:2601   */\n      0x00\n        /* \"#utility.yul\":2593:2605   */\n      revert\n        /* \"#utility.yul\":2617:2734   */\n    tag_65:\n        /* \"#utility.yul\":2726:2727   */\n      0x00\n        /* \"#utility.yul\":2723:2724   */\n      0x00\n        /* \"#utility.yul\":2716:2728   */\n      revert\n        /* \"#utility.yul\":2740:2920   */\n    tag_66:\n        /* \"#utility.yul\":2788:2865   */\n      0x4e487b7100000000000000000000000000000000000000000000000000000000\n        /* \"#utility.yul\":2785:2786   */\n      0x00\n        /* \"#utility.yul\":2778:2866   */\n      mstore\n        /* \"#utility.yul\":2885:2889   */\n      0x41\n        /* \"#utility.yul\":2882:2883   */\n      0x04\n        /* \"#utility.yul\":2875:2890   */\n      mstore\n        /* \"#utility.yul\":2909:2913   */\n      0x24\n        /* \"#utility.yul\":2906:2907   */\n      0x00\n        /* \"#utility.yul\":2899:2914   */\n      revert\n        /* \"#utility.yul\":2926:3207   */\n    tag_67:\n        /* \"#utility.yul\":3009:3036   */\n      tag_123\n        /* \"#utility.yul\":3031:3035   */\n      dup3\n        /* \"#utility.yul\":3009:3036   */\n      tag_61\n      jump\t// in\n    tag_123:\n        /* \"#utility.yul\":3001:3007   */\n      dup2\n        /* \"#utility.yul\":2997:3037   */\n      add\n        /* \"#utility.yul\":3139:3145   */\n      dup2\n        /* \"#utility.yul\":3127:3137   */\n      dup2\n        /* \"#utility.yul\":3124:3146   */\n      lt\n        /* \"#utility.yul\":3103:3121   */\n      0xffffffffffffffff\n        /* \"#utility.yul\":3091:3101   */\n      dup3\n        /* \"#utility.yul\":3088:3122   */\n      gt\n        /* \"#utility.yul\":3085:3147   */\n      or\n        /* \"#utility.yul\":3082:3170   */\n      iszero\n      tag_124\n      jumpi\n        /* \"#utility.yul\":3150:3168   */\n      tag_125\n      tag_66\n      jump\t// in\n    tag_125:\n        /* \"#utility.yul\":3082:3170   */\n    tag_124:\n        /* \"#utility.yul\":3190:3200   */\n      dup1\n        /* \"#utility.yul\":3186:3188   */\n      0x40\n        /* \"#utility.yul\":3179:3201   */\n      mstore\n        /* \"#utility.yul\":2969:3207   */\n      pop\n        /* \"#utility.yul\":2926:3207   */\n      pop\n      pop\n      jump\t// out\n        /* \"#utility.yul\":3213:3342   */\n    tag_68:\n        /* \"#utility.yul\":3247:3253   */\n      0x00\n        /* \"#utility.yul\":3274:3294   */\n      tag_127\n      tag_52\n      jump\t// in\n    tag_127:\n        /* \"#utility.yul\":3264:3294   */\n      swap1\n      pop\n        /* \"#utility.yul\":3303:3336   */\n      tag_128\n        /* \"#utility.yul\":3331:3335   */\n      dup3\n        /* \"#utility.yul\":3323:3329   */\n      dup3\n        /* \"#utility.yul\":3303:3336   */\n      tag_67\n      jump\t// in\n    tag_128:\n        /* \"#utility.yul\":3213:3342   */\n      swap2\n      swap1\n      pop\n      jump\t// out\n        /* \"#utility.yul\":3348:3656   */\n    tag_69:\n        /* \"#utility.yul\":3410:3414   */\n      0x00\n        /* \"#utility.yul\":3500:3518   */\n      0xffffffffffffffff\n        /* \"#utility.yul\":3492:3498   */\n      dup3\n        /* \"#utility.yul\":3489:3519   */\n      gt\n        /* \"#utility.yul\":3486:3542   */\n      iszero\n      tag_130\n      jumpi\n        /* \"#utility.yul\":3522:3540   */\n      tag_131\n      tag_66\n      jump\t// in\n    tag_131:\n        /* \"#utility.yul\":3486:3542   */\n    tag_130:\n        /* \"#utility.yul\":3560:3589   */\n      tag_132\n        /* \"#utility.yul\":3582:3588   */\n      dup3\n        /* \"#utility.yul\":3560:3589   */\n      tag_61\n      jump\t// in\n    tag_132:\n        /* \"#utility.yul\":3552:3589   */\n      swap1\n      pop\n        /* \"#utility.yul\":3644:3648   */\n      0x20\n        /* \"#utility.yul\":3638:3642   */\n      dup2\n        /* \"#utility.yul\":3634:3649   */\n      add\n        /* \"#utility.yul\":3626:3649   */\n      swap1\n      pop\n        /* \"#utility.yul\":3348:3656   */\n      swap2\n      swap1\n      pop\n      jump\t// out\n        /* \"#utility.yul\":3662:3810   */\n    tag_70:\n        /* \"#utility.yul\":3760:3766   */\n      dup3\n        /* \"#utility.yul\":3755:3758   */\n      dup2\n        /* \"#utility.yul\":3750:3753   */\n      dup4\n        /* \"#utility.yul\":3737:3767   */\n      calldatacopy\n        /* \"#utility.yul\":3801:3802   */\n      0x00\n        /* \"#utility.yul\":3792:3798   */\n      dup4\n        /* \"#utility.yul\":3787:3790   */\n      dup4\n        /* \"#utility.yul\":3783:3799   */\n      add\n        /* \"#utility.yul\":3776:3803   */\n      mstore\n        /* \"#utility.yul\":3662:3810   */\n      pop\n      pop\n      pop\n      jump\t// out\n        /* \"#utility.yul\":3816:4241   */\n    tag_71:\n        /* \"#utility.yul\":3894:3899   */\n      0x00\n        /* \"#utility.yul\":3919:3985   */\n      tag_135\n        /* \"#utility.yul\":3935:3984   */\n      tag_136\n        /* \"#utility.yul\":3977:3983   */\n      dup5\n        /* \"#utility.yul\":3935:3984   */\n      tag_69\n      jump\t// in\n    tag_136:\n        /* \"#utility.yul\":3919:3985   */\n      tag_68\n      jump\t// in\n    tag_135:\n        /* \"#utility.yul\":3910:3985   */\n      swap1\n      pop\n        /* \"#utility.yul\":4008:4014   */\n      dup3\n        /* \"#utility.yul\":4001:4006   */\n      dup2\n        /* \"#utility.yul\":3994:4015   */\n      mstore\n        /* \"#utility.yul\":4046:4050   */\n      0x20\n        /* \"#utility.yul\":4039:4044   */\n      dup2\n        /* \"#utility.yul\":4035:4051   */\n      add\n        /* \"#utility.yul\":4084:4087   */\n      dup5\n        /* \"#utility.yul\":4075:4081   */\n      dup5\n        /* \"#utility.yul\":4070:4073   */\n      dup5\n        /* \"#utility.yul\":4066:4082   */\n      add\n        /* \"#utility.yul\":4063:4088   */\n      gt\n        /* \"#utility.yul\":4060:4172   */\n      iszero\n      tag_137\n      jumpi\n        /* \"#utility.yul\":4091:4170   */\n      tag_138\n      tag_65\n      jump\t// in\n    tag_138:\n        /* \"#utility.yul\":4060:4172   */\n    tag_137:\n        /* \"#utility.yul\":4181:4235   */\n      tag_139\n        /* \"#utility.yul\":4228:4234   */\n      dup5\n        /* \"#utility.yul\":4223:4226   */\n      dup3\n        /* \"#utility.yul\":4218:4221   */\n      dup6\n        /* \"#utility.yul\":4181:4235   */\n      tag_70\n      jump\t// in\n    tag_139:\n        /* \"#utility.yul\":3900:4241   */\n      pop\n        /* \"#utility.yul\":3816:4241   */\n      swap4\n      swap3\n      pop\n      pop\n      pop\n      jump\t// out\n        /* \"#utility.yul\":4261:4601   */\n    tag_72:\n        /* \"#utility.yul\":4317:4322   */\n      0x00\n        /* \"#utility.yul\":4366:4369   */\n      dup3\n        /* \"#utility.yul\":4359:4363   */\n      0x1f\n        /* \"#utility.yul\":4351:4357   */\n      dup4\n        /* \"#utility.yul\":4347:4364   */\n      add\n        /* \"#utility.yul\":4343:4370   */\n      slt\n        /* \"#utility.yul\":4333:4455   */\n      tag_141\n      jumpi\n        /* \"#utility.yul\":4374:4453   */\n      tag_142\n      tag_64\n      jump\t// in\n    tag_142:\n        /* \"#utility.yul\":4333:4455   */\n    tag_141:\n        /* \"#utility.yul\":4491:4497   */\n      dup2\n        /* \"#utility.yul\":4478:4498   */\n      calldataload\n        /* \"#utility.yul\":4516:4595   */\n      tag_143\n        /* \"#utility.yul\":4591:4594   */\n      dup5\n        /* \"#utility.yul\":4583:4589   */\n      dup3\n        /* \"#utility.yul\":4576:4580   */\n      0x20\n        /* \"#utility.yul\":4568:4574   */\n      dup7\n        /* \"#utility.yul\":4564:4581   */\n      add\n        /* \"#utility.yul\":4516:4595   */\n      tag_71\n      jump\t// in\n    tag_143:\n        /* \"#utility.yul\":4507:4595   */\n      swap2\n      pop\n        /* \"#utility.yul\":4323:4601   */\n      pop\n        /* \"#utility.yul\":4261:4601   */\n      swap3\n      swap2\n      pop\n      pop\n      jump\t// out\n        /* \"#utility.yul\":4607:5261   */\n    tag_15:\n        /* \"#utility.yul\":4685:4691   */\n      0x00\n        /* \"#utility.yul\":4693:4699   */\n      0x00\n        /* \"#utility.yul\":4742:4744   */\n      0x40\n        /* \"#utility.yul\":4730:4739   */\n      dup4\n        /* \"#utility.yul\":4721:4728   */\n      dup6\n        /* \"#utility.yul\":4717:4740   */\n      sub\n        /* \"#utility.yul\":4713:4745   */\n      slt\n        /* \"#utility.yul\":4710:4829   */\n      iszero\n      tag_145\n      jumpi\n        /* \"#utility.yul\":4748:4827   */\n      tag_146\n      tag_53\n      jump\t// in\n    tag_146:\n        /* \"#utility.yul\":4710:4829   */\n    tag_145:\n        /* \"#utility.yul\":4896:4897   */\n      0x00\n        /* \"#utility.yul\":4885:4894   */\n      dup4\n        /* \"#utility.yul\":4881:4898   */\n      add\n        /* \"#utility.yul\":4868:4899   */\n      calldataload\n        /* \"#utility.yul\":4926:4944   */\n      0xffffffffffffffff\n        /* \"#utility.yul\":4918:4924   */\n      dup2\n        /* \"#utility.yul\":4915:4945   */\n      gt\n        /* \"#utility.yul\":4912:5029   */\n      iszero\n      tag_147\n      jumpi\n        /* \"#utility.yul\":4948:5027   */\n      tag_148\n      tag_54\n      jump\t// in\n    tag_148:\n        /* \"#utility.yul\":4912:5029   */\n    tag_147:\n        /* \"#utility.yul\":5053:5116   */\n      tag_149\n        /* \"#utility.yul\":5108:5115   */\n      dup6\n        /* \"#utility.yul\":5099:5105   */\n      dup3\n        /* \"#utility.yul\":5088:5097   */\n      dup7\n        /* \"#utility.yul\":5084:5106   */\n      add\n        /* \"#utility.yul\":5053:5116   */\n      tag_72\n      jump\t// in\n    tag_149:\n        /* \"#utility.yul\":5043:5116   */\n      swap3\n      pop\n        /* \"#utility.yul\":4839:5126   */\n      pop\n        /* \"#utility.yul\":5165:5167   */\n      0x20\n        /* \"#utility.yul\":5191:5244   */\n      tag_150\n        /* \"#utility.yul\":5236:5243   */\n      dup6\n        /* \"#utility.yul\":5227:5233   */\n      dup3\n        /* \"#utility.yul\":5216:5225   */\n      dup7\n        /* \"#utility.yul\":5212:5234   */\n      add\n        /* \"#utility.yul\":5191:5244   */\n      tag_57\n      jump\t// in\n    tag_150:\n        /* \"#utility.yul\":5181:5244   */\n      swap2\n      pop\n        /* \"#utility.yul\":5136:5254   */\n      pop\n        /* \"#utility.yul\":4607:5261   */\n      swap3\n      pop\n      swap3\n      swap1\n      pop\n      jump\t// out\n        /* \"#utility.yul\":5267:5776   */\n    tag_19:\n        /* \"#utility.yul\":5336:5342   */\n      0x00\n        /* \"#utility.yul\":5385:5387   */\n      0x20\n        /* \"#utility.yul\":5373:5382   */\n      dup3\n        /* \"#utility.yul\":5364:5371   */\n      dup5\n        /* \"#utility.yul\":5360:5383   */\n      sub\n        /* \"#utility.yul\":5356:5388   */\n      slt\n        /* \"#utility.yul\":5353:5472   */\n      iszero\n      tag_152\n      jumpi\n        /* \"#utility.yul\":5391:5470   */\n      tag_153\n      tag_53\n      jump\t// in\n    tag_153:\n        /* \"#utility.yul\":5353:5472   */\n    tag_152:\n        /* \"#utility.yul\":5539:5540   */\n      0x00\n        /* \"#utility.yul\":5528:5537   */\n      dup3\n        /* \"#utility.yul\":5524:5541   */\n      add\n        /* \"#utility.yul\":5511:5542   */\n      calldataload\n        /* \"#utility.yul\":5569:5587   */\n      0xffffffffffffffff\n        /* \"#utility.yul\":5561:5567   */\n      dup2\n        /* \"#utility.yul\":5558:5588   */\n      gt\n        /* \"#utility.yul\":5555:5672   */\n      iszero\n      tag_154\n      jumpi\n        /* \"#utility.yul\":5591:5670   */\n      tag_155\n      tag_54\n      jump\t// in\n    tag_155:\n        /* \"#utility.yul\":5555:5672   */\n    tag_154:\n        /* \"#utility.yul\":5696:5759   */\n      tag_156\n        /* \"#utility.yul\":5751:5758   */\n      dup5\n        /* \"#utility.yul\":5742:5748   */\n      dup3\n        /* \"#utility.yul\":5731:5740   */\n      dup6\n        /* \"#utility.yul\":5727:5749   */\n      add\n        /* \"#utility.yul\":5696:5759   */\n      tag_72\n      jump\t// in\n    tag_156:\n        /* \"#utility.yul\":5686:5759   */\n      swap2\n      pop\n        /* \"#utility.yul\":5482:5769   */\n      pop\n        /* \"#utility.yul\":5267:5776   */\n      swap3\n      swap2\n      pop\n      pop\n      jump\t// out\n        /* \"#utility.yul\":5782:6004   */\n    tag_22:\n        /* \"#utility.yul\":5875:5879   */\n      0x00\n        /* \"#utility.yul\":5913:5915   */\n      0x20\n        /* \"#utility.yul\":5902:5911   */\n      dup3\n        /* \"#utility.yul\":5898:5916   */\n      add\n        /* \"#utility.yul\":5890:5916   */\n      swap1\n      pop\n        /* \"#utility.yul\":5926:5997   */\n      tag_158\n        /* \"#utility.yul\":5994:5995   */\n      0x00\n        /* \"#utility.yul\":5983:5992   */\n      dup4\n        /* \"#utility.yul\":5979:5996   */\n      add\n        /* \"#utility.yul\":5970:5976   */\n      dup5\n        /* \"#utility.yul\":5926:5997   */\n      tag_63\n      jump\t// in\n    tag_158:\n        /* \"#utility.yul\":5782:6004   */\n      swap3\n      swap2\n      pop\n      pop\n      jump\t// out\n        /* \"#utility.yul\":6010:6433   */\n    tag_27:\n        /* \"#utility.yul\":6151:6155   */\n      0x00\n        /* \"#utility.yul\":6189:6191   */\n      0x40\n        /* \"#utility.yul\":6178:6187   */\n      dup3\n        /* \"#utility.yul\":6174:6192   */\n      add\n        /* \"#utility.yul\":6166:6192   */\n      swap1\n      pop\n        /* \"#utility.yul\":6202:6273   */\n      tag_160\n        /* \"#utility.yul\":6270:6271   */\n      0x00\n        /* \"#utility.yul\":6259:6268   */\n      dup4\n        /* \"#utility.yul\":6255:6272   */\n      add\n        /* \"#utility.yul\":6246:6252   */\n      dup6\n        /* \"#utility.yul\":6202:6273   */\n      tag_63\n      jump\t// in\n    tag_160:\n        /* \"#utility.yul\":6320:6329   */\n      dup2\n        /* \"#utility.yul\":6314:6318   */\n      dup2\n        /* \"#utility.yul\":6310:6330   */\n      sub\n        /* \"#utility.yul\":6305:6307   */\n      0x20\n        /* \"#utility.yul\":6294:6303   */\n      dup4\n        /* \"#utility.yul\":6290:6308   */\n      add\n        /* \"#utility.yul\":6283:6331   */\n      mstore\n        /* \"#utility.yul\":6348:6426   */\n      tag_161\n        /* \"#utility.yul\":6421:6425   */\n      dup2\n        /* \"#utility.yul\":6412:6418   */\n      dup5\n        /* \"#utility.yul\":6348:6426   */\n      tag_62\n      jump\t// in\n    tag_161:\n        /* \"#utility.yul\":6340:6426   */\n      swap1\n      pop\n        /* \"#utility.yul\":6010:6433   */\n      swap4\n      swap3\n      pop\n      pop\n      pop\n      jump\t// out\n        /* \"#utility.yul\":6439:6619   */\n    tag_31:\n        /* \"#utility.yul\":6487:6564   */\n      0x4e487b7100000000000000000000000000000000000000000000000000000000\n        /* \"#utility.yul\":6484:6485   */\n      0x00\n        /* \"#utility.yul\":6477:6565   */\n      mstore\n        /* \"#utility.yul\":6584:6588   */\n      0x32\n        /* \"#utility.yul\":6581:6582   */\n      0x04\n        /* \"#utility.yul\":6574:6589   */\n      mstore\n        /* \"#utility.yul\":6608:6612   */\n      0x24\n        /* \"#utility.yul\":6605:6606   */\n      0x00\n        /* \"#utility.yul\":6598:6613   */\n      revert\n        /* \"#utility.yul\":6625:6805   */\n    tag_73:\n        /* \"#utility.yul\":6673:6750   */\n      0x4e487b7100000000000000000000000000000000000000000000000000000000\n        /* \"#utility.yul\":6670:6671   */\n      0x00\n        /* \"#utility.yul\":6663:6751   */\n      mstore\n        /* \"#utility.yul\":6770:6774   */\n      0x22\n        /* \"#utility.yul\":6767:6768   */\n      0x04\n        /* \"#utility.yul\":6760:6775   */\n      mstore\n        /* \"#utility.yul\":6794:6798   */\n      0x24\n        /* \"#utility.yul\":6791:6792   */\n      0x00\n        /* \"#utility.yul\":6784:6799   */\n      revert\n        /* \"#utility.yul\":6811:7131   */\n    tag_34:\n        /* \"#utility.yul\":6855:6861   */\n      0x00\n        /* \"#utility.yul\":6892:6893   */\n      0x02\n        /* \"#utility.yul\":6886:6890   */\n      dup3\n        /* \"#utility.yul\":6882:6894   */\n      div\n        /* \"#utility.yul\":6872:6894   */\n      swap1\n      pop\n        /* \"#utility.yul\":6939:6940   */\n      0x01\n        /* \"#utility.yul\":6933:6937   */\n      dup3\n        /* \"#utility.yul\":6929:6941   */\n      and\n        /* \"#utility.yul\":6960:6978   */\n      dup1\n        /* \"#utility.yul\":6950:7031   */\n      tag_165\n      jumpi\n        /* \"#utility.yul\":7016:7020   */\n      0x7f\n        /* \"#utility.yul\":7008:7014   */\n      dup3\n        /* \"#utility.yul\":7004:7021   */\n      and\n        /* \"#utility.yul\":6994:7021   */\n      swap2\n      pop\n        /* \"#utility.yul\":6950:7031   */\n    tag_165:\n        /* \"#utility.yul\":7078:7080   */\n      0x20\n        /* \"#utility.yul\":7070:7076   */\n      dup3\n        /* \"#utility.yul\":7067:7081   */\n      lt\n        /* \"#utility.yul\":7047:7065   */\n      dup2\n        /* \"#utility.yul\":7044:7082   */\n      sub\n        /* \"#utility.yul\":7041:7125   */\n      tag_166\n      jumpi\n        /* \"#utility.yul\":7097:7115   */\n      tag_167\n      tag_73\n      jump\t// in\n    tag_167:\n        /* \"#utility.yul\":7041:7125   */\n    tag_166:\n        /* \"#utility.yul\":6862:7131   */\n      pop\n        /* \"#utility.yul\":6811:7131   */\n      swap2\n      swap1\n      pop\n      jump\t// out\n        /* \"#utility.yul\":7137:7278   */\n    tag_74:\n        /* \"#utility.yul\":7186:7190   */\n      0x00\n        /* \"#utility.yul\":7209:7212   */\n      dup2\n        /* \"#utility.yul\":7201:7212   */\n      swap1\n      pop\n        /* \"#utility.yul\":7232:7235   */\n      dup2\n        /* \"#utility.yul\":7229:7230   */\n      0x00\n        /* \"#utility.yul\":7222:7236   */\n      mstore\n        /* \"#utility.yul\":7266:7270   */\n      0x20\n        /* \"#utility.yul\":7263:7264   */\n      0x00\n        /* \"#utility.yul\":7253:7271   */\n      keccak256\n        /* \"#utility.yul\":7245:7271   */\n      swap1\n      pop\n        /* \"#utility.yul\":7137:7278   */\n      swap2\n      swap1\n      pop\n      jump\t// out\n        /* \"#utility.yul\":7284:7377   */\n    tag_75:\n        /* \"#utility.yul\":7321:7327   */\n      0x00\n        /* \"#utility.yul\":7368:7370   */\n      0x20\n        /* \"#utility.yul\":7363:7365   */\n      0x1f\n        /* \"#utility.yul\":7356:7361   */\n      dup4\n        /* \"#utility.yul\":7352:7366   */\n      add\n        /* \"#utility.yul\":7348:7371   */\n      div\n        /* \"#utility.yul\":7338:7371   */\n      swap1\n      pop\n        /* \"#utility.yul\":7284:7377   */\n      swap2\n      swap1\n      pop\n      jump\t// out\n        /* \"#utility.yul\":7383:7490   */\n    tag_76:\n        /* \"#utility.yul\":7427:7435   */\n      0x00\n        /* \"#utility.yul\":7477:7482   */\n      dup3\n        /* \"#utility.yul\":7471:7475   */\n      dup3\n        /* \"#utility.yul\":7467:7483   */\n      shl\n        /* \"#utility.yul\":7446:7483   */\n      swap1\n      pop\n        /* \"#utility.yul\":7383:7490   */\n      swap3\n      swap2\n      pop\n      pop\n      jump\t// out\n        /* \"#utility.yul\":7496:7889   */\n    tag_77:\n        /* \"#utility.yul\":7565:7571   */\n      0x00\n        /* \"#utility.yul\":7615:7616   */\n      0x08\n        /* \"#utility.yul\":7603:7613   */\n      dup4\n        /* \"#utility.yul\":7599:7617   */\n      mul\n        /* \"#utility.yul\":7638:7735   */\n      tag_172\n        /* \"#utility.yul\":7668:7734   */\n      0xffffffffffffffffffffffffffffffffffffffffffffffffffffffffffffffff\n        /* \"#utility.yul\":7657:7666   */\n      dup3\n        /* \"#utility.yul\":7638:7735   */\n      tag_76\n      jump\t// in\n    tag_172:\n        /* \"#utility.yul\":7756:7795   */\n      tag_173\n        /* \"#utility.yul\":7786:7794   */\n      dup7\n        /* \"#utility.yul\":7775:7784   */\n      dup4\n        /* \"#utility.yul\":7756:7795   */\n      tag_76\n      jump\t// in\n    tag_173:\n        /* \"#utility.yul\":7744:7795   */\n      swap6\n      pop\n        /* \"#utility.yul\":7828:7832   */\n      dup1\n        /* \"#utility.yul\":7824:7833   */\n      not\n        /* \"#utility.yul\":7817:7822   */\n      dup5\n        /* \"#utility.yul\":7813:7834   */\n      and\n        /* \"#utility.yul\":7804:7834   */\n      swap4\n      pop\n        /* \"#utility.yul\":7877:7881   */\n      dup1\n        /* \"#utility.yul\":7867:7875   */\n      dup7\n        /* \"#utility.yul\":7863:7882   */\n      and\n        /* \"#utility.yul\":7856:7861   */\n      dup5\n        /* \"#utility.yul\":7853:7883   */\n      or\n        /* \"#utility.yul\":7843:7883   */\n      swap3\n      pop\n        /* \"#utility.yul\":7572:7889   */\n      pop\n      pop\n        /* \"#utility.yul\":7496:7889   */\n      swap4\n      swap3\n      pop\n      pop\n      pop\n      jump\t// out\n        /* \"#utility.yul\":7895:7955   */\n    tag_78:\n        /* \"#utility.yul\":7923:7926   */\n      0x00\n        /* \"#utility.yul\":7944:7949   */\n      dup2\n        /* \"#utility.yul\":7937:7949   */\n      swap1\n      pop\n        /* \"#utility.yul\":7895:7955   */\n      swap2\n      swap1\n      pop\n      jump\t// out\n        /* \"#utility.yul\":7961:8103   */\n    tag_79:\n        /* \"#utility.yul\":8011:8020   */\n      0x00\n        /* \"#utility.yul\":8044:8097   */\n      tag_176\n        /* \"#utility.yul\":8062:8096   */\n      tag_177\n        /* \"#utility.yul\":8071:8095   */\n      tag_178\n        /* \"#utility.yul\":8089:8094   */\n      dup5\n        /* \"#utility.yul\":8071:8095   */\n      tag_55\n      jump\t// in\n    tag_178:\n        /* \"#utility.yul\":8062:8096   */\n      tag_78\n      jump\t// in\n    tag_177:\n        /* \"#utility.yul\":8044:8097   */\n      tag_55\n      jump\t// in\n    tag_176:\n        /* \"#utility.yul\":8031:8097   */\n      swap1\n      pop\n        /* \"#utility.yul\":7961:8103   */\n      swap2\n      swap1\n      pop\n      jump\t// out\n        /* \"#utility.yul\":8109:8184   */\n    tag_80:\n        /* \"#utility.yul\":8152:8155   */\n      0x00\n        /* \"#utility.yul\":8173:8178   */\n      dup2\n        /* \"#utility.yul\":8166:8178   */\n      swap1\n      pop\n        /* \"#utility.yul\":8109:8184   */\n      swap2\n      swap1\n      pop\n      jump\t// out\n        /* \"#utility.yul\":8190:8459   */\n    tag_81:\n        /* \"#utility.yul\":8300:8339   */\n      tag_181\n        /* \"#utility.yul\":8331:8338   */\n      dup4\n        /* \"#utility.yul\":8300:8339   */\n      tag_79\n      jump\t// in\n    tag_181:\n        /* \"#utility.yul\":8361:8452   */\n      tag_182\n        /* \"#utility.yul\":8410:8451   */\n      tag_183\n        /* \"#utility.yul\":8434:8450   */\n      dup3\n        /* \"#utility.yul\":8410:8451   */\n      tag_80\n      jump\t// in\n    tag_183:\n        /* \"#utility.yul\":8402:8408   */\n      dup5\n        /* \"#utility.yul\":8395:8399   */\n      dup5\n        /* \"#utility.yul\":8389:8400   */\n      sload\n        /* \"#utility.yul\":8361:8452   */\n      tag_77\n      jump\t// in\n    tag_182:\n        /* \"#utility.yul\":8355:8359   */\n      dup3\n        /* \"#utility.yul\":8348:8453   */\n      sstore\n        /* \"#utility.yul\":8266:8459   */\n      pop\n        /* \"#utility.yul\":8190:8459   */\n      pop\n      pop\n      pop\n      jump\t// out\n        /* \"#utility.yul\":8465:8538   */\n    tag_82:\n        /* \"#utility.yul\":8510:8513   */\n      0x00\n        /* \"#utility.yul\":8531:8532   */\n      0x00\n        /* \"#utility.yul\":8524:8532   */\n      swap1\n      pop\n        /* \"#utility.yul\":8465:8538   */\n      swap1\n      jump\t// out\n        /* \"#utility.yul\":8544:8733   */\n    tag_83:\n        /* \"#utility.yul\":8621:8653   */\n      tag_186\n      tag_82\n      jump\t// in\n    tag_186:\n        /* \"#utility.yul\":8662:8727   */\n      tag_187\n        /* \"#utility.yul\":8720:8726   */\n      dup2\n        /* \"#utility.yul\":8712:8718   */\n      dup5\n        /* \"#utility.yul\":8706:8710   */\n      dup5\n        /* \"#utility.yul\":8662:8727   */\n      tag_81\n      jump\t// in\n    tag_187:\n        /* \"#utility.yul\":8597:8733   */\n      pop\n        /* \"#utility.yul\":8544:8733   */\n      pop\n      pop\n      jump\t// out\n        /* \"#utility.yul\":8739:8925   */\n    tag_84:\n        /* \"#utility.yul\":8799:8919   */\n    tag_189:\n        /* \"#utility.yul\":8816:8819   */\n      dup2\n        /* \"#utility.yul\":8809:8814   */\n      dup2\n        /* \"#utility.yul\":8806:8820   */\n      lt\n        /* \"#utility.yul\":8799:8919   */\n      iszero\n      tag_191\n      jumpi\n        /* \"#utility.yul\":8870:8909   */\n      tag_192\n        /* \"#utility.yul\":8907:8908   */\n      0x00\n        /* \"#utility.yul\":8900:8905   */\n      dup3\n        /* \"#utility.yul\":8870:8909   */\n      tag_83\n      jump\t// in\n    tag_192:\n        /* \"#utility.yul\":8843:8844   */\n      0x01\n        /* \"#utility.yul\":8836:8841   */\n      dup2\n        /* \"#utility.yul\":8832:8845   */\n      add\n        /* \"#utility.yul\":8823:8845   */\n      swap1\n      pop\n        /* \"#utility.yul\":8799:8919   */\n      jump(tag_189)\n    tag_191:\n        /* \"#utility.yul\":8739:8925   */\n      pop\n      pop\n      jump\t// out\n        /* \"#utility.yul\":8931:9474   */\n    tag_85:\n        /* \"#utility.yul\":9032:9034   */\n      0x1f\n        /* \"#utility.yul\":9027:9030   */\n      dup3\n        /* \"#utility.yul\":9024:9035   */\n      gt\n        /* \"#utility.yul\":9021:9467   */\n      iszero\n      tag_194\n      jumpi\n        /* \"#utility.yul\":9066:9104   */\n      tag_195\n        /* \"#utility.yul\":9098:9103   */\n      dup2\n        /* \"#utility.yul\":9066:9104   */\n      tag_74\n      jump\t// in\n    tag_195:\n        /* \"#utility.yul\":9150:9179   */\n      tag_196\n        /* \"#utility.yul\":9168:9178   */\n      dup5\n        /* \"#utility.yul\":9150:9179   */\n      tag_75\n      jump\t// in\n    tag_196:\n        /* \"#utility.yul\":9140:9148   */\n      dup2\n        /* \"#utility.yul\":9136:9180   */\n      add\n        /* \"#utility.yul\":9333:9335   */\n      0x20\n        /* \"#utility.yul\":9321:9331   */\n      dup6\n        /* \"#utility.yul\":9318:9336   */\n      lt\n        /* \"#utility.yul\":9315:9364   */\n      iszero\n      tag_197\n      jumpi\n        /* \"#utility.yul\":9354:9362   */\n      dup2\n        /* \"#utility.yul\":9339:9362   */\n      swap1\n      pop\n        /* \"#utility.yul\":9315:9364   */\n    tag_197:\n        /* \"#utility.yul\":9377:9457   */\n      tag_198\n        /* \"#utility.yul\":9433:9455   */\n      tag_199\n        /* \"#utility.yul\":9451:9454   */\n      dup6\n        /* \"#utility.yul\":9433:9455   */\n      tag_75\n      jump\t// in\n    tag_199:\n        /* \"#utility.yul\":9423:9431   */\n      dup4\n        /* \"#utility.yul\":9419:9456   */\n      add\n        /* \"#utility.yul\":9406:9417   */\n      dup3\n        /* \"#utility.yul\":9377:9457   */\n      tag_84\n      jump\t// in\n    tag_198:\n        /* \"#utility.yul\":9036:9467   */\n      pop\n      pop\n        /* \"#utility.yul\":9021:9467   */\n    tag_194:\n        /* \"#utility.yul\":8931:9474   */\n      pop\n      pop\n      pop\n      jump\t// out\n        /* \"#utility.yul\":9480:9597   */\n    tag_86:\n        /* \"#utility.yul\":9534:9542   */\n      0x00\n        /* \"#utility.yul\":9584:9589   */\n      dup3\n        /* \"#utility.yul\":9578:9582   */\n      dup3\n        /* \"#utility.yul\":9574:9590   */\n      shr\n        /* \"#utility.yul\":9553:9590   */\n      swap1\n      pop\n        /* \"#utility.yul\":9480:9597   */\n      swap3\n      swap2\n      pop\n      pop\n      jump\t// out\n        /* \"#utility.yul\":9603:9772   */\n    tag_87:\n        /* \"#utility.yul\":9647:9653   */\n      0x00\n        /* \"#utility.yul\":9680:9731   */\n      tag_202\n        /* \"#utility.yul\":9728:9729   */\n      0x00\n        /* \"#utility.yul\":9724:9730   */\n      not\n        /* \"#utility.yul\":9716:9721   */\n      dup5\n        /* \"#utility.yul\":9713:9714   */\n      0x08\n        /* \"#utility.yul\":9709:9722   */\n      mul\n        /* \"#utility.yul\":9680:9731   */\n      tag_86\n      jump\t// in\n    tag_202:\n        /* \"#utility.yul\":9676:9732   */\n      not\n        /* \"#utility.yul\":9761:9765   */\n      dup1\n        /* \"#utility.yul\":9755:9759   */\n      dup4\n        /* \"#utility.yul\":9751:9766   */\n      and\n        /* \"#utility.yul\":9741:9766   */\n      swap2\n      pop\n        /* \"#utility.yul\":9654:9772   */\n      pop\n        /* \"#utility.yul\":9603:9772   */\n      swap3\n      swap2\n      pop\n      pop\n      jump\t// out\n        /* \"#utility.yul\":9777:10072   */\n    tag_88:\n        /* \"#utility.yul\":9853:9857   */\n      0x00\n        /* \"#utility.yul\":9999:10028   */\n      tag_204\n        /* \"#utility.yul\":10024:10027   */\n      dup4\n        /* \"#utility.yul\":10018:10022   */\n      dup4\n        /* \"#utility.yul\":9999:10028   */\n      tag_87\n      jump\t// in\n    tag_204:\n        /* \"#utility.yul\":9991:10028   */\n      swap2\n      pop\n        /* \"#utility.yul\":10061:10064   */\n      dup3\n        /* \"#utility.yul\":10058:10059   */\n      0x02\n        /* \"#utility.yul\":10054:10065   */\n      mul\n        /* \"#utility.yul\":10048:10052   */\n      dup3\n        /* \"#utility.yul\":10045:10066   */\n      or\n        /* \"#utility.yul\":10037:10066   */\n      swap1\n      pop\n        /* \"#utility.yul\":9777:10072   */\n      swap3\n      swap2\n      pop\n      pop\n      jump\t// out\n        /* \"#utility.yul\":10077:11472   */\n    tag_42:\n        /* \"#utility.yul\":10194:10231   */\n      tag_206\n        /* \"#utility.yul\":10227:10230   */\n      dup3\n        /* \"#utility.yul\":10194:10231   */\n      tag_58\n      jump\t// in\n    tag_206:\n        /* \"#utility.yul\":10296:10314   */\n      0xffffffffffffffff\n        /* \"#utility.yul\":10288:10294   */\n      dup2\n        /* \"#utility.yul\":10285:10315   */\n      gt\n        /* \"#utility.yul\":10282:10338   */\n      iszero\n      tag_207\n      jumpi\n        /* \"#utility.yul\":10318:10336   */\n      tag_208\n      tag_66\n      jump\t// in\n    tag_208:\n        /* \"#utility.yul\":10282:10338   */\n    tag_207:\n        /* \"#utility.yul\":10362:10400   */\n      tag_209\n        /* \"#utility.yul\":10394:10398   */\n      dup3\n        /* \"#utility.yul\":10388:10399   */\n      sload\n        /* \"#utility.yul\":10362:10400   */\n      tag_34\n      jump\t// in\n    tag_209:\n        /* \"#utility.yul\":10447:10514   */\n      tag_210\n        /* \"#utility.yul\":10507:10513   */\n      dup3\n        /* \"#utility.yul\":10499:10505   */\n      dup3\n        /* \"#utility.yul\":10493:10497   */\n      dup6\n        /* \"#utility.yul\":10447:10514   */\n      tag_85\n      jump\t// in\n    tag_210:\n        /* \"#utility.yul\":10541:10542   */\n      0x00\n        /* \"#utility.yul\":10565:10569   */\n      0x20\n        /* \"#utility.yul\":10552:10569   */\n      swap1\n      pop\n        /* \"#utility.yul\":10597:10599   */\n      0x1f\n        /* \"#utility.yul\":10589:10595   */\n      dup4\n        /* \"#utility.yul\":10586:10600   */\n      gt\n        /* \"#utility.yul\":10614:10615   */\n      0x01\n        /* \"#utility.yul\":10609:11227   */\n      dup2\n      eq\n      tag_212\n      jumpi\n        /* \"#utility.yul\":11271:11272   */\n      0x00\n        /* \"#utility.yul\":11288:11294   */\n      dup5\n        /* \"#utility.yul\":11285:11362   */\n      iszero\n      tag_213\n      jumpi\n        /* \"#utility.yul\":11337:11346   */\n      dup3\n        /* \"#utility.yul\":11332:11335   */\n      dup8\n        /* \"#utility.yul\":11328:11347   */\n      add\n        /* \"#utility.yul\":11322:11348   */\n      mload\n        /* \"#utility.yul\":11313:11348   */\n      swap1\n      pop\n        /* \"#utility.yul\":11285:11362   */\n    tag_213:\n        /* \"#utility.yul\":11388:11455   */\n      tag_214\n        /* \"#utility.yul\":11448:11454   */\n      dup6\n        /* \"#utility.yul\":11441:11446   */\n      dup3\n        /* \"#utility.yul\":11388:11455   */\n      tag_88\n      jump\t// in\n    tag_214:\n        /* \"#utility.yul\":11382:11386   */\n      dup7\n        /* \"#utility.yul\":11375:11456   */\n      sstore\n        /* \"#utility.yul\":11244:11466   */\n      pop\n        /* \"#utility.yul\":10579:11466   */\n      jump(tag_211)\n        /* \"#utility.yul\":10609:11227   */\n    tag_212:\n        /* \"#utility.yul\":10661:10665   */\n      0x1f\n        /* \"#utility.yul\":10657:10666   */\n      not\n        /* \"#utility.yul\":10649:10655   */\n      dup5\n        /* \"#utility.yul\":10645:10667   */\n      and\n        /* \"#utility.yul\":10695:10732   */\n      tag_215\n        /* \"#utility.yul\":10727:10731   */\n      dup7\n        /* \"#utility.yul\":10695:10732   */\n      tag_74\n      jump\t// in\n    tag_215:\n        /* \"#utility.yul\":10754:10755   */\n      0x00\n        /* \"#utility.yul\":10768:10976   */\n    tag_216:\n        /* \"#utility.yul\":10782:10789   */\n      dup3\n        /* \"#utility.yul\":10779:10780   */\n      dup2\n        /* \"#utility.yul\":10776:10790   */\n      lt\n        /* \"#utility.yul\":10768:10976   */\n      iszero\n      tag_218\n      jumpi\n        /* \"#utility.yul\":10861:10870   */\n      dup5\n        /* \"#utility.yul\":10856:10859   */\n      dup10\n        /* \"#utility.yul\":10852:10871   */\n      add\n        /* \"#utility.yul\":10846:10872   */\n      mload\n        /* \"#utility.yul\":10838:10844   */\n      dup3\n        /* \"#utility.yul\":10831:10873   */\n      sstore\n        /* \"#utility.yul\":10912:10913   */\n      0x01\n        /* \"#utility.yul\":10904:10910   */\n      dup3\n        /* \"#utility.yul\":10900:10914   */\n      add\n        /* \"#utility.yul\":10890:10914   */\n      swap2\n      pop\n        /* \"#utility.yul\":10959:10961   */\n      0x20\n        /* \"#utility.yul\":10948:10957   */\n      dup6\n        /* \"#utility.yul\":10944:10962   */\n      add\n        /* \"#utility.yul\":10931:10962   */\n      swap5\n      pop\n        /* \"#utility.yul\":10805:10809   */\n      0x20\n        /* \"#utility.yul\":10802:10803   */\n      dup2\n        /* \"#utility.yul\":10798:10810   */\n      add\n        /* \"#utility.yul\":10793:10810   */\n      swap1\n      pop\n        /* \"#utility.yul\":10768:10976   */\n      jump(tag_216)\n    tag_218:\n        /* \"#utility.yul\":11004:11010   */\n      dup7\n        /* \"#utility.yul\":10995:11002   */\n      dup4\n        /* \"#utility.yul\":10992:11011   */\n      lt\n        /* \"#utility.yul\":10989:11168   */\n      iszero\n      tag_219\n      jumpi\n        /* \"#utility.yul\":11062:11071   */\n      dup5\n        /* \"#utility.yul\":11057:11060   */\n      dup10\n        /* \"#utility.yul\":11053:11072   */\n      add\n        /* \"#utility.yul\":11047:11073   */\n      mload\n        /* \"#utility.yul\":11105:11153   */\n      tag_220\n        /* \"#utility.yul\":11147:11151   */\n      0x1f\n        /* \"#utility.yul\":11139:11145   */\n      dup10\n        /* \"#utility.yul\":11135:11152   */\n      and\n        /* \"#utility.yul\":11124:11133   */\n      dup3\n        /* \"#utility.yul\":11105:11153   */\n      tag_87\n      jump\t// in\n    tag_220:\n        /* \"#utility.yul\":11097:11103   */\n      dup4\n        /* \"#utility.yul\":11090:11154   */\n      sstore\n        /* \"#utility.yul\":11012:11168   */\n      pop\n        /* \"#utility.yul\":10989:11168   */\n    tag_219:\n        /* \"#utility.yul\":11214:11215   */\n      0x01\n        /* \"#utility.yul\":11210:11211   */\n      0x02\n        /* \"#utility.yul\":11202:11208   */\n      dup9\n        /* \"#utility.yul\":11198:11212   */\n      mul\n        /* \"#utility.yul\":11194:11216   */\n      add\n        /* \"#utility.yul\":11188:11192   */\n      dup9\n        /* \"#utility.yul\":11181:11217   */\n      sstore\n        /* \"#utility.yul\":10616:11227   */\n      pop\n      pop\n      pop\n        /* \"#utility.yul\":10579:11466   */\n    tag_211:\n      pop\n        /* \"#utility.yul\":10169:11472   */\n      pop\n      pop\n      pop\n        /* \"#utility.yul\":10077:11472   */\n      pop\n      pop\n      jump\t// out\n        /* \"#utility.yul\":11478:11626   */\n    tag_89:\n        /* \"#utility.yul\":11580:11591   */\n      0x00\n        /* \"#utility.yul\":11617:11620   */\n      dup2\n        /* \"#utility.yul\":11602:11620   */\n      swap1\n      pop\n        /* \"#utility.yul\":11478:11626   */\n      swap3\n      swap2\n      pop\n      pop\n      jump\t// out\n        /* \"#utility.yul\":11632:12022   */\n    tag_90:\n        /* \"#utility.yul\":11738:11741   */\n      0x00\n        /* \"#utility.yul\":11766:11805   */\n      tag_223\n        /* \"#utility.yul\":11799:11804   */\n      dup3\n        /* \"#utility.yul\":11766:11805   */\n      tag_58\n      jump\t// in\n    tag_223:\n        /* \"#utility.yul\":11821:11910   */\n      tag_224\n        /* \"#utility.yul\":11903:11909   */\n      dup2\n        /* \"#utility.yul\":11898:11901   */\n      dup6\n        /* \"#utility.yul\":11821:11910   */\n      tag_89\n      jump\t// in\n    tag_224:\n        /* \"#utility.yul\":11814:11910   */\n      swap4\n      pop\n        /* \"#utility.yul\":11919:11984   */\n      tag_225\n        /* \"#utility.yul\":11977:11983   */\n      dup2\n        /* \"#utility.yul\":11972:11975   */\n      dup6\n        /* \"#utility.yul\":11965:11969   */\n      0x20\n        /* \"#utility.yul\":11958:11963   */\n      dup7\n        /* \"#utility.yul\":11954:11970   */\n      add\n        /* \"#utility.yul\":11919:11984   */\n      tag_60\n      jump\t// in\n    tag_225:\n        /* \"#utility.yul\":12009:12015   */\n      dup1\n        /* \"#utility.yul\":12004:12007   */\n      dup5\n        /* \"#utility.yul\":12000:12016   */\n      add\n        /* \"#utility.yul\":11993:12016   */\n      swap2\n      pop\n        /* \"#utility.yul\":11742:12022   */\n      pop\n        /* \"#utility.yul\":11632:12022   */\n      swap3\n      swap2\n      pop\n      pop\n      jump\t// out\n        /* \"#utility.yul\":12028:12303   */\n    tag_44:\n        /* \"#utility.yul\":12160:12163   */\n      0x00\n        /* \"#utility.yul\":12182:12277   */\n      tag_227\n        /* \"#utility.yul\":12273:12276   */\n      dup3\n        /* \"#utility.yul\":12264:12270   */\n      dup5\n        /* \"#utility.yul\":12182:12277   */\n      tag_90\n      jump\t// in\n    tag_227:\n        /* \"#utility.yul\":12175:12277   */\n      swap2\n      pop\n        /* \"#utility.yul\":12294:12297   */\n      dup2\n        /* \"#utility.yul\":12287:12297   */\n      swap1\n      pop\n        /* \"#utility.yul\":12028:12303   */\n      swap3\n      swap2\n      pop\n      pop\n      jump\t// out\n\n    auxdata: 0xa2646970667358221220d72877d9070b50356e279e5321361adb69b723b2089aaad1393808a16c24d06f64736f6c634300081e0033\n}\n",
				"bytecode": {
					"linkReferences": {},
					"object": "6080604052348015600e575f5ffd5b506109eb8061001c5f395ff3fe608060405234801561000f575f5ffd5b506004361061004a575f3560e01c8063246982c41461004e5780636f760f411461007f5780638bab8dd51461009b5780639e7a13ad146100cb575b5f5ffd5b61006860048036038101906100639190610380565b6100fc565b60405161007692919061042a565b60405180910390f35b61009960048036038101906100949190610584565b6101d8565b005b6100b560048036038101906100b091906105de565b61025b565b6040516100c29190610625565b60405180910390f35b6100e560048036038101906100e09190610380565b610288565b6040516100f392919061063e565b60405180910390f35b60605f5f5f84815481106101135761011261066c565b5b905f5260205f2090600202016040518060400160405290815f8201548152602001600182018054610143906106c6565b80601f016020809104026020016040519081016040528092919081815260200182805461016f906106c6565b80156101ba5780601f10610191576101008083540402835291602001916101ba565b820191905f5260205f20905b81548152906001019060200180831161019d57829003601f168201915b50505050508152505090508060200151815f01519250925050915091565b5f604051806040016040528083815260200184815250908060018154018082558091505060019003905f5260205f2090600202015f909190919091505f820151815f015560208201518160010190816102319190610896565b50505080600183604051610245919061099f565b9081526020016040518091039020819055505050565b6001818051602081018201805184825260208301602085012081835280955050505050505f915090505481565b5f8181548110610296575f80fd5b905f5260205f2090600202015f91509050805f0154908060010180546102bb906106c6565b80601f01602080910402602001604051908101604052809291908181526020018280546102e7906106c6565b80156103325780601f1061030957610100808354040283529160200191610332565b820191905f5260205f20905b81548152906001019060200180831161031557829003601f168201915b5050505050905082565b5f604051905090565b5f5ffd5b5f5ffd5b5f819050919050565b61035f8161034d565b8114610369575f5ffd5b50565b5f8135905061037a81610356565b92915050565b5f6020828403121561039557610394610345565b5b5f6103a28482850161036c565b91505092915050565b5f81519050919050565b5f82825260208201905092915050565b8281835e5f83830152505050565b5f601f19601f8301169050919050565b5f6103ed826103ab565b6103f781856103b5565b93506104078185602086016103c5565b610410816103d3565b840191505092915050565b6104248161034d565b82525050565b5f6040820190508181035f83015261044281856103e3565b9050610451602083018461041b565b9392505050565b5f5ffd5b5f5ffd5b7f4e487b71000000000000000000000000000000000000000000000000000000005f52604160045260245ffd5b610496826103d3565b810181811067ffffffffffffffff821117156104b5576104b4610460565b5b80604052505050565b5f6104c761033c565b90506104d3828261048d565b919050565b5f67ffffffffffffffff8211156104f2576104f1610460565b5b6104fb826103d3565b9050602081019050919050565b828183375f83830152505050565b5f610528610523846104d8565b6104be565b9050828152602081018484840111156105445761054361045c565b5b61054f848285610508565b509392505050565b5f82601f83011261056b5761056a610458565b5b813561057b848260208601610516565b91505092915050565b5f5f6040838503121561059a57610599610345565b5b5f83013567ffffffffffffffff8111156105b7576105b6610349565b5b6105c385828601610557565b92505060206105d48582860161036c565b9150509250929050565b5f602082840312156105f3576105f2610345565b5b5f82013567ffffffffffffffff8111156106105761060f610349565b5b61061c84828501610557565b91505092915050565b5f6020820190506106385f83018461041b565b92915050565b5f6040820190506106515f83018561041b565b818103602083015261066381846103e3565b90509392505050565b7f4e487b71000000000000000000000000000000000000000000000000000000005f52603260045260245ffd5b7f4e487b71000000000000000000000000000000000000000000000000000000005f52602260045260245ffd5b5f60028204905060018216806106dd57607f821691505b6020821081036106f0576106ef610699565b5b50919050565b5f819050815f5260205f209050919050565b5f6020601f8301049050919050565b5f82821b905092915050565b5f600883026107527fffffffffffffffffffffffffffffffffffffffffffffffffffffffffffffffff82610717565b61075c8683610717565b95508019841693508086168417925050509392505050565b5f819050919050565b5f61079761079261078d8461034d565b610774565b61034d565b9050919050565b5f819050919050565b6107b08361077d565b6107c46107bc8261079e565b848454610723565b825550505050565b5f5f905090565b6107db6107cc565b6107e68184846107a7565b505050565b5b81811015610809576107fe5f826107d3565b6001810190506107ec565b5050565b601f82111561084e5761081f816106f6565b61082884610708565b81016020851015610837578190505b61084b61084385610708565b8301826107eb565b50505b505050565b5f82821c905092915050565b5f61086e5f1984600802610853565b1980831691505092915050565b5f610886838361085f565b9150826002028217905092915050565b61089f826103ab565b67ffffffffffffffff8111156108b8576108b7610460565b5b6108c282546106c6565b6108cd82828561080d565b5f60209050601f8311600181146108fe575f84156108ec578287015190505b6108f6858261087b565b86555061095d565b601f19841661090c866106f6565b5f5b828110156109335784890151825560018201915060208501945060208101905061090e565b86831015610950578489015161094c601f89168261085f565b8355505b6001600288020188555050505b505050505050565b5f81905092915050565b5f610979826103ab565b6109838185610965565b93506109938185602086016103c5565b80840191505092915050565b5f6109aa828461096f565b91508190509291505056fea2646970667358221220d72877d9070b50356e279e5321361adb69b723b2089aaad1393808a16c24d06f64736f6c634300081e0033",
					"opcodes": "PUSH1 0x80 PUSH1 0x40 MSTORE CALLVALUE DUP1 ISZERO PUSH1 0xE JUMPI PUSH0 PUSH0 REVERT JUMPDEST POP PUSH2 0x9EB DUP1 PUSH2 0x1C PUSH0 CODECOPY PUSH0 RETURN INVALID PUSH1 0x80 PUSH1 0x40 MSTORE CALLVALUE DUP1 ISZERO PUSH2 0xF JUMPI PUSH0 PUSH0 REVERT JUMPDEST POP PUSH1 0x4 CALLDATASIZE LT PUSH2 0x4A JUMPI PUSH0 CALLDATALOAD PUSH1 0xE0 SHR DUP1 PUSH4 0x246982C4 EQ PUSH2 0x4E JUMPI DUP1 PUSH4 0x6F760F41 EQ PUSH2 0x7F JUMPI DUP1 PUSH4 0x8BAB8DD5 EQ PUSH2 0x9B JUMPI DUP1 PUSH4 0x9E7A13AD EQ PUSH2 0xCB JUMPI JUMPDEST PUSH0 PUSH0 REVERT JUMPDEST PUSH2 0x68 PUSH1 0x4 DUP1 CALLDATASIZE SUB DUP2 ADD SWAP1 PUSH2 0x63 SWAP2 SWAP1 PUSH2 0x380 JUMP JUMPDEST PUSH2 0xFC JUMP JUMPDEST PUSH1 0x40 MLOAD PUSH2 0x76 SWAP3 SWAP2 SWAP1 PUSH2 0x42A JUMP JUMPDEST PUSH1 0x40 MLOAD DUP1 SWAP2 SUB SWAP1 RETURN JUMPDEST PUSH2 0x99 PUSH1 0x4 DUP1 CALLDATASIZE SUB DUP2 ADD SWAP1 PUSH2 0x94 SWAP2 SWAP1 PUSH2 0x584 JUMP JUMPDEST PUSH2 0x1D8 JUMP JUMPDEST STOP JUMPDEST PUSH2 0xB5 PUSH1 0x4 DUP1 CALLDATASIZE SUB DUP2 ADD SWAP1 PUSH2 0xB0 SWAP2 SWAP1 PUSH2 0x5DE JUMP JUMPDEST PUSH2 0x25B JUMP JUMPDEST PUSH1 0x40 MLOAD PUSH2 0xC2 SWAP2 SWAP1 PUSH2 0x625 JUMP JUMPDEST PUSH1 0x40 MLOAD DUP1 SWAP2 SUB SWAP1 RETURN JUMPDEST PUSH2 0xE5 PUSH1 0x4 DUP1 CALLDATASIZE SUB DUP2 ADD SWAP1 PUSH2 0xE0 SWAP2 SWAP1 PUSH2 0x380 JUMP JUMPDEST PUSH2 0x288 JUMP JUMPDEST PUSH1 0x40 MLOAD PUSH2 0xF3 SWAP3 SWAP2 SWAP1 PUSH2 0x63E JUMP JUMPDEST PUSH1 0x40 MLOAD DUP1 SWAP2 SUB SWAP1 RETURN JUMPDEST PUSH1 0x60 PUSH0 PUSH0 PUSH0 DUP5 DUP2 SLOAD DUP2 LT PUSH2 0x113 JUMPI PUSH2 0x112 PUSH2 0x66C JUMP JUMPDEST JUMPDEST SWAP1 PUSH0 MSTORE PUSH1 0x20 PUSH0 KECCAK256 SWAP1 PUSH1 0x2 MUL ADD PUSH1 0x40 MLOAD DUP1 PUSH1 0x40 ADD PUSH1 0x40 MSTORE SWAP1 DUP2 PUSH0 DUP3 ADD SLOAD DUP2 MSTORE PUSH1 0x20 ADD PUSH1 0x1 DUP3 ADD DUP1 SLOAD PUSH2 0x143 SWAP1 PUSH2 0x6C6 JUMP JUMPDEST DUP1 PUSH1 0x1F ADD PUSH1 0x20 DUP1 SWAP2 DIV MUL PUSH1 0x20 ADD PUSH1 0x40 MLOAD SWAP1 DUP2 ADD PUSH1 0x40 MSTORE DUP1 SWAP3 SWAP2 SWAP1 DUP2 DUP2 MSTORE PUSH1 0x20 ADD DUP3 DUP1 SLOAD PUSH2 0x16F SWAP1 PUSH2 0x6C6 JUMP JUMPDEST DUP1 ISZERO PUSH2 0x1BA JUMPI DUP1 PUSH1 0x1F LT PUSH2 0x191 JUMPI PUSH2 0x100 DUP1 DUP4 SLOAD DIV MUL DUP4 MSTORE SWAP2 PUSH1 0x20 ADD SWAP2 PUSH2 0x1BA JUMP JUMPDEST DUP3 ADD SWAP2 SWAP1 PUSH0 MSTORE PUSH1 0x20 PUSH0 KECCAK256 SWAP1 JUMPDEST DUP2 SLOAD DUP2 MSTORE SWAP1 PUSH1 0x1 ADD SWAP1 PUSH1 0x20 ADD DUP1 DUP4 GT PUSH2 0x19D JUMPI DUP3 SWAP1 SUB PUSH1 0x1F AND DUP3 ADD SWAP2 JUMPDEST POP POP POP POP POP DUP2 MSTORE POP POP SWAP1 POP DUP1 PUSH1 0x20 ADD MLOAD DUP2 PUSH0 ADD MLOAD SWAP3 POP SWAP3 POP POP SWAP2 POP SWAP2 JUMP JUMPDEST PUSH0 PUSH1 0x40 MLOAD DUP1 PUSH1 0x40 ADD PUSH1 0x40 MSTORE DUP1 DUP4 DUP2 MSTORE PUSH1 0x20 ADD DUP5 DUP2 MSTORE POP SWAP1 DUP1 PUSH1 0x1 DUP2 SLOAD ADD DUP1 DUP3 SSTORE DUP1 SWAP2 POP POP PUSH1 0x1 SWAP1 SUB SWAP1 PUSH0 MSTORE PUSH1 0x20 PUSH0 KECCAK256 SWAP1 PUSH1 0x2 MUL ADD PUSH0 SWAP1 SWAP2 SWAP1 SWAP2 SWAP1 SWAP2 POP PUSH0 DUP3 ADD MLOAD DUP2 PUSH0 ADD SSTORE PUSH1 0x20 DUP3 ADD MLOAD DUP2 PUSH1 0x1 ADD SWAP1 DUP2 PUSH2 0x231 SWAP2 SWAP1 PUSH2 0x896 JUMP JUMPDEST POP POP POP DUP1 PUSH1 0x1 DUP4 PUSH1 0x40 MLOAD PUSH2 0x245 SWAP2 SWAP1 PUSH2 0x99F JUMP JUMPDEST SWAP1 DUP2 MSTORE PUSH1 0x20 ADD PUSH1 0x40 MLOAD DUP1 SWAP2 SUB SWAP1 KECCAK256 DUP2 SWAP1 SSTORE POP POP POP JUMP JUMPDEST PUSH1 0x1 DUP2 DUP1 MLOAD PUSH1 0x20 DUP2 ADD DUP3 ADD DUP1 MLOAD DUP5 DUP3 MSTORE PUSH1 0x20 DUP4 ADD PUSH1 0x20 DUP6 ADD KECCAK256 DUP2 DUP4 MSTORE DUP1 SWAP6 POP POP POP POP POP POP PUSH0 SWAP2 POP SWAP1 POP SLOAD DUP2 JUMP JUMPDEST PUSH0 DUP2 DUP2 SLOAD DUP2 LT PUSH2 0x296 JUMPI PUSH0 DUP1 REVERT JUMPDEST SWAP1 PUSH0 MSTORE PUSH1 0x20 PUSH0 KECCAK256 SWAP1 PUSH1 0x2 MUL ADD PUSH0 SWAP2 POP SWAP1 POP DUP1 PUSH0 ADD SLOAD SWAP1 DUP1 PUSH1 0x1 ADD DUP1 SLOAD PUSH2 0x2BB SWAP1 PUSH2 0x6C6 JUMP JUMPDEST DUP1 PUSH1 0x1F ADD PUSH1 0x20 DUP1 SWAP2 DIV MUL PUSH1 0x20 ADD PUSH1 0x40 MLOAD SWAP1 DUP2 ADD PUSH1 0x40 MSTORE DUP1 SWAP3 SWAP2 SWAP1 DUP2 DUP2 MSTORE PUSH1 0x20 ADD DUP3 DUP1 SLOAD PUSH2 0x2E7 SWAP1 PUSH2 0x6C6 JUMP JUMPDEST DUP1 ISZERO PUSH2 0x332 JUMPI DUP1 PUSH1 0x1F LT PUSH2 0x309 JUMPI PUSH2 0x100 DUP1 DUP4 SLOAD DIV MUL DUP4 MSTORE SWAP2 PUSH1 0x20 ADD SWAP2 PUSH2 0x332 JUMP JUMPDEST DUP3 ADD SWAP2 SWAP1 PUSH0 MSTORE PUSH1 0x20 PUSH0 KECCAK256 SWAP1 JUMPDEST DUP2 SLOAD DUP2 MSTORE SWAP1 PUSH1 0x1 ADD SWAP1 PUSH1 0x20 ADD DUP1 DUP4 GT PUSH2 0x315 JUMPI DUP3 SWAP1 SUB PUSH1 0x1F AND DUP3 ADD SWAP2 JUMPDEST POP POP POP POP POP SWAP1 POP DUP3 JUMP JUMPDEST PUSH0 PUSH1 0x40 MLOAD SWAP1 POP SWAP1 JUMP JUMPDEST PUSH0 PUSH0 REVERT JUMPDEST PUSH0 PUSH0 REVERT JUMPDEST PUSH0 DUP2 SWAP1 POP SWAP2 SWAP1 POP JUMP JUMPDEST PUSH2 0x35F DUP2 PUSH2 0x34D JUMP JUMPDEST DUP2 EQ PUSH2 0x369 JUMPI PUSH0 PUSH0 REVERT JUMPDEST POP JUMP JUMPDEST PUSH0 DUP2 CALLDATALOAD SWAP1 POP PUSH2 0x37A DUP2 PUSH2 0x356 JUMP JUMPDEST SWAP3 SWAP2 POP POP JUMP JUMPDEST PUSH0 PUSH1 0x20 DUP3 DUP5 SUB SLT ISZERO PUSH2 0x395 JUMPI PUSH2 0x394 PUSH2 0x345 JUMP JUMPDEST JUMPDEST PUSH0 PUSH2 0x3A2 DUP5 DUP3 DUP6 ADD PUSH2 0x36C JUMP JUMPDEST SWAP2 POP POP SWAP3 SWAP2 POP POP JUMP JUMPDEST PUSH0 DUP2 MLOAD SWAP1 POP SWAP2 SWAP1 POP JUMP JUMPDEST PUSH0 DUP3 DUP3 MSTORE PUSH1 0x20 DUP3 ADD SWAP1 POP SWAP3 SWAP2 POP POP JUMP JUMPDEST DUP3 DUP2 DUP4 MCOPY PUSH0 DUP4 DUP4 ADD MSTORE POP POP POP JUMP JUMPDEST PUSH0 PUSH1 0x1F NOT PUSH1 0x1F DUP4 ADD AND SWAP1 POP SWAP2 SWAP1 POP JUMP JUMPDEST PUSH0 PUSH2 0x3ED DUP3 PUSH2 0x3AB JUMP JUMPDEST PUSH2 0x3F7 DUP2 DUP6 PUSH2 0x3B5 JUMP JUMPDEST SWAP4 POP PUSH2 0x407 DUP2 DUP6 PUSH1 0x20 DUP7 ADD PUSH2 0x3C5 JUMP JUMPDEST PUSH2 0x410 DUP2 PUSH2 0x3D3 JUMP JUMPDEST DUP5 ADD SWAP2 POP POP SWAP3 SWAP2 POP POP JUMP JUMPDEST PUSH2 0x424 DUP2 PUSH2 0x34D JUMP JUMPDEST DUP3 MSTORE POP POP JUMP JUMPDEST PUSH0 PUSH1 0x40 DUP3 ADD SWAP1 POP DUP2 DUP2 SUB PUSH0 DUP4 ADD MSTORE PUSH2 0x442 DUP2 DUP6 PUSH2 0x3E3 JUMP JUMPDEST SWAP1 POP PUSH2 0x451 PUSH1 0x20 DUP4 ADD DUP5 PUSH2 0x41B JUMP JUMPDEST SWAP4 SWAP3 POP POP POP JUMP JUMPDEST PUSH0 PUSH0 REVERT JUMPDEST PUSH0 PUSH0 REVERT JUMPDEST PUSH32 0x4E487B7100000000000000000000000000000000000000000000000000000000 PUSH0 MSTORE PUSH1 0x41 PUSH1 0x4 MSTORE PUSH1 0x24 PUSH0 REVERT JUMPDEST PUSH2 0x496 DUP3 PUSH2 0x3D3 JUMP JUMPDEST DUP2 ADD DUP2 DUP2 LT PUSH8 0xFFFFFFFFFFFFFFFF DUP3 GT OR ISZERO PUSH2 0x4B5 JUMPI PUSH2 0x4B4 PUSH2 0x460 JUMP JUMPDEST JUMPDEST DUP1 PUSH1 0x40 MSTORE POP POP POP JUMP JUMPDEST PUSH0 PUSH2 0x4C7 PUSH2 0x33C JUMP JUMPDEST SWAP1 POP PUSH2 0x4D3 DUP3 DUP3 PUSH2 0x48D JUMP JUMPDEST SWAP2 SWAP1 POP JUMP JUMPDEST PUSH0 PUSH8 0xFFFFFFFFFFFFFFFF DUP3 GT ISZERO PUSH2 0x4F2 JUMPI PUSH2 0x4F1 PUSH2 0x460 JUMP JUMPDEST JUMPDEST PUSH2 0x4FB DUP3 PUSH2 0x3D3 JUMP JUMPDEST SWAP1 POP PUSH1 0x20 DUP2 ADD SWAP1 POP SWAP2 SWAP1 POP JUMP JUMPDEST DUP3 DUP2 DUP4 CALLDATACOPY PUSH0 DUP4 DUP4 ADD MSTORE POP POP POP JUMP JUMPDEST PUSH0 PUSH2 0x528 PUSH2 0x523 DUP5 PUSH2 0x4D8 JUMP JUMPDEST PUSH2 0x4BE JUMP JUMPDEST SWAP1 POP DUP3 DUP2 MSTORE PUSH1 0x20 DUP2 ADD DUP5 DUP5 DUP5 ADD GT ISZERO PUSH2 0x544 JUMPI PUSH2 0x543 PUSH2 0x45C JUMP JUMPDEST JUMPDEST PUSH2 0x54F DUP5 DUP3 DUP6 PUSH2 0x508 JUMP JUMPDEST POP SWAP4 SWAP3 POP POP POP JUMP JUMPDEST PUSH0 DUP3 PUSH1 0x1F DUP4 ADD SLT PUSH2 0x56B JUMPI PUSH2 0x56A PUSH2 0x458 JUMP JUMPDEST JUMPDEST DUP2 CALLDATALOAD PUSH2 0x57B DUP5 DUP3 PUSH1 0x20 DUP7 ADD PUSH2 0x516 JUMP JUMPDEST SWAP2 POP POP SWAP3 SWAP2 POP POP JUMP JUMPDEST PUSH0 PUSH0 PUSH1 0x40 DUP4 DUP6 SUB SLT ISZERO PUSH2 0x59A JUMPI PUSH2 0x599 PUSH2 0x345 JUMP JUMPDEST JUMPDEST PUSH0 DUP4 ADD CALLDATALOAD PUSH8 0xFFFFFFFFFFFFFFFF DUP2 GT ISZERO PUSH2 0x5B7 JUMPI PUSH2 0x5B6 PUSH2 0x349 JUMP JUMPDEST JUMPDEST PUSH2 0x5C3 DUP6 DUP3 DUP7 ADD PUSH2 0x557 JUMP JUMPDEST SWAP3 POP POP PUSH1 0x20 PUSH2 0x5D4 DUP6 DUP3 DUP7 ADD PUSH2 0x36C JUMP JUMPDEST SWAP2 POP POP SWAP3 POP SWAP3 SWAP1 POP JUMP JUMPDEST PUSH0 PUSH1 0x20 DUP3 DUP5 SUB SLT ISZERO PUSH2 0x5F3 JUMPI PUSH2 0x5F2 PUSH2 0x345 JUMP JUMPDEST JUMPDEST PUSH0 DUP3 ADD CALLDATALOAD PUSH8 0xFFFFFFFFFFFFFFFF DUP2 GT ISZERO PUSH2 0x610 JUMPI PUSH2 0x60F PUSH2 0x349 JUMP JUMPDEST JUMPDEST PUSH2 0x61C DUP5 DUP3 DUP6 ADD PUSH2 0x557 JUMP JUMPDEST SWAP2 POP POP SWAP3 SWAP2 POP POP JUMP JUMPDEST PUSH0 PUSH1 0x20 DUP3 ADD SWAP1 POP PUSH2 0x638 PUSH0 DUP4 ADD DUP5 PUSH2 0x41B JUMP JUMPDEST SWAP3 SWAP2 POP POP JUMP JUMPDEST PUSH0 PUSH1 0x40 DUP3 ADD SWAP1 POP PUSH2 0x651 PUSH0 DUP4 ADD DUP6 PUSH2 0x41B JUMP JUMPDEST DUP2 DUP2 SUB PUSH1 0x20 DUP4 ADD MSTORE PUSH2 0x663 DUP2 DUP5 PUSH2 0x3E3 JUMP JUMPDEST SWAP1 POP SWAP4 SWAP3 POP POP POP JUMP JUMPDEST PUSH32 0x4E487B7100000000000000000000000000000000000000000000000000000000 PUSH0 MSTORE PUSH1 0x32 PUSH1 0x4 MSTORE PUSH1 0x24 PUSH0 REVERT JUMPDEST PUSH32 0x4E487B7100000000000000000000000000000000000000000000000000000000 PUSH0 MSTORE PUSH1 0x22 PUSH1 0x4 MSTORE PUSH1 0x24 PUSH0 REVERT JUMPDEST PUSH0 PUSH1 0x2 DUP3 DIV SWAP1 POP PUSH1 0x1 DUP3 AND DUP1 PUSH2 0x6DD JUMPI PUSH1 0x7F DUP3 AND SWAP2 POP JUMPDEST PUSH1 0x20 DUP3 LT DUP2 SUB PUSH2 0x6F0 JUMPI PUSH2 0x6EF PUSH2 0x699 JUMP JUMPDEST JUMPDEST POP SWAP2 SWAP1 POP JUMP JUMPDEST PUSH0 DUP2 SWAP1 POP DUP2 PUSH0 MSTORE PUSH1 0x20 PUSH0 KECCAK256 SWAP1 POP SWAP2 SWAP1 POP JUMP JUMPDEST PUSH0 PUSH1 0x20 PUSH1 0x1F DUP4 ADD DIV SWAP1 POP SWAP2 SWAP1 POP JUMP JUMPDEST PUSH0 DUP3 DUP3 SHL SWAP1 POP SWAP3 SWAP2 POP POP JUMP JUMPDEST PUSH0 PUSH1 0x8 DUP4 MUL PUSH2 0x752 PUSH32 0xFFFFFFFFFFFFFFFFFFFFFFFFFFFFFFFFFFFFFFFFFFFFFFFFFFFFFFFFFFFFFFFF DUP3 PUSH2 0x717 JUMP JUMPDEST PUSH2 0x75C DUP7 DUP4 PUSH2 0x717 JUMP JUMPDEST SWAP6 POP DUP1 NOT DUP5 AND SWAP4 POP DUP1 DUP7 AND DUP5 OR SWAP3 POP POP POP SWAP4 SWAP3 POP POP POP JUMP JUMPDEST PUSH0 DUP2 SWAP1 POP SWAP2 SWAP1 POP JUMP JUMPDEST PUSH0 PUSH2 0x797 PUSH2 0x792 PUSH2 0x78D DUP5 PUSH2 0x34D JUMP JUMPDEST PUSH2 0x774 JUMP JUMPDEST PUSH2 0x34D JUMP JUMPDEST SWAP1 POP SWAP2 SWAP1 POP JUMP JUMPDEST PUSH0 DUP2 SWAP1 POP SWAP2 SWAP1 POP JUMP JUMPDEST PUSH2 0x7B0 DUP4 PUSH2 0x77D JUMP JUMPDEST PUSH2 0x7C4 PUSH2 0x7BC DUP3 PUSH2 0x79E JUMP JUMPDEST DUP5 DUP5 SLOAD PUSH2 0x723 JUMP JUMPDEST DUP3 SSTORE POP POP POP POP JUMP JUMPDEST PUSH0 PUSH0 SWAP1 POP SWAP1 JUMP JUMPDEST PUSH2 0x7DB PUSH2 0x7CC JUMP JUMPDEST PUSH2 0x7E6 DUP2 DUP5 DUP5 PUSH2 0x7A7 JUMP JUMPDEST POP POP POP JUMP JUMPDEST JUMPDEST DUP2 DUP2 LT ISZERO PUSH2 0x809 JUMPI PUSH2 0x7FE PUSH0 DUP3 PUSH2 0x7D3 JUMP JUMPDEST PUSH1 0x1 DUP2 ADD SWAP1 POP PUSH2 0x7EC JUMP JUMPDEST POP POP JUMP JUMPDEST PUSH1 0x1F DUP3 GT ISZERO PUSH2 0x84E JUMPI PUSH2 0x81F DUP2 PUSH2 0x6F6 JUMP JUMPDEST PUSH2 0x828 DUP5 PUSH2 0x708 JUMP JUMPDEST DUP2 ADD PUSH1 0x20 DUP6 LT ISZERO PUSH2 0x837 JUMPI DUP2 SWAP1 POP JUMPDEST PUSH2 0x84B PUSH2 0x843 DUP6 PUSH2 0x708 JUMP JUMPDEST DUP4 ADD DUP3 PUSH2 0x7EB JUMP JUMPDEST POP POP JUMPDEST POP POP POP JUMP JUMPDEST PUSH0 DUP3 DUP3 SHR SWAP1 POP SWAP3 SWAP2 POP POP JUMP JUMPDEST PUSH0 PUSH2 0x86E PUSH0 NOT DUP5 PUSH1 0x8 MUL PUSH2 0x853 JUMP JUMPDEST NOT DUP1 DUP4 AND SWAP2 POP POP SWAP3 SWAP2 POP POP JUMP JUMPDEST PUSH0 PUSH2 0x886 DUP4 DUP4 PUSH2 0x85F JUMP JUMPDEST SWAP2 POP DUP3 PUSH1 0x2 MUL DUP3 OR SWAP1 POP SWAP3 SWAP2 POP POP JUMP JUMPDEST PUSH2 0x89F DUP3 PUSH2 0x3AB JUMP JUMPDEST PUSH8 0xFFFFFFFFFFFFFFFF DUP2 GT ISZERO PUSH2 0x8B8 JUMPI PUSH2 0x8B7 PUSH2 0x460 JUMP JUMPDEST JUMPDEST PUSH2 0x8C2 DUP3 SLOAD PUSH2 0x6C6 JUMP JUMPDEST PUSH2 0x8CD DUP3 DUP3 DUP6 PUSH2 0x80D JUMP JUMPDEST PUSH0 PUSH1 0x20 SWAP1 POP PUSH1 0x1F DUP4 GT PUSH1 0x1 DUP2 EQ PUSH2 0x8FE JUMPI PUSH0 DUP5 ISZERO PUSH2 0x8EC JUMPI DUP3 DUP8 ADD MLOAD SWAP1 POP JUMPDEST PUSH2 0x8F6 DUP6 DUP3 PUSH2 0x87B JUMP JUMPDEST DUP7 SSTORE POP PUSH2 0x95D JUMP JUMPDEST PUSH1 0x1F NOT DUP5 AND PUSH2 0x90C DUP7 PUSH2 0x6F6 JUMP JUMPDEST PUSH0 JUMPDEST DUP3 DUP2 LT ISZERO PUSH2 0x933 JUMPI DUP5 DUP10 ADD MLOAD DUP3 SSTORE PUSH1 0x1 DUP3 ADD SWAP2 POP PUSH1 0x20 DUP6 ADD SWAP5 POP PUSH1 0x20 DUP2 ADD SWAP1 POP PUSH2 0x90E JUMP JUMPDEST DUP7 DUP4 LT ISZERO PUSH2 0x950 JUMPI DUP5 DUP10 ADD MLOAD PUSH2 0x94C PUSH1 0x1F DUP10 AND DUP3 PUSH2 0x85F JUMP JUMPDEST DUP4 SSTORE POP JUMPDEST PUSH1 0x1 PUSH1 0x2 DUP9 MUL ADD DUP9 SSTORE POP POP POP JUMPDEST POP POP POP POP POP POP JUMP JUMPDEST PUSH0 DUP2 SWAP1 POP SWAP3 SWAP2 POP POP JUMP JUMPDEST PUSH0 PUSH2 0x979 DUP3 PUSH2 0x3AB JUMP JUMPDEST PUSH2 0x983 DUP2 DUP6 PUSH2 0x965 JUMP JUMPDEST SWAP4 POP PUSH2 0x993 DUP2 DUP6 PUSH1 0x20 DUP7 ADD PUSH2 0x3C5 JUMP JUMPDEST DUP1 DUP5 ADD SWAP2 POP POP SWAP3 SWAP2 POP POP JUMP JUMPDEST PUSH0 PUSH2 0x9AA DUP3 DUP5 PUSH2 0x96F JUMP JUMPDEST SWAP2 POP DUP2 SWAP1 POP SWAP3 SWAP2 POP POP JUMP INVALID LOG2 PUSH5 0x6970667358 0x22 SLT KECCAK256 0xD7 0x28 PUSH24 0xD9070B50356E279E5321361ADB69B723B2089AAAD1393808 LOG1 PUSH13 0x24D06F64736F6C634300081E00 CALLER "
				},
				"gasEstimates": {
					"creation": {
						"codeDepositCost": "507800",
						"executionCost": "541",
						"totalCost": "508341"
					},
					"external": {
						"addPerson(string,uint256)": "infinite",
						"getPerson(uint256)": "infinite",
						"nameToFavoriteNumber(string)": "infinite",
						"people(uint256)": "infinite"
					}
				},
				"methodIdentifiers": {
					"addPerson(string,uint256)": "6f760f41",
					"getPerson(uint256)": "246982c4",
					"nameToFavoriteNumber(string)": "8bab8dd5",
					"people(uint256)": "9e7a13ad"
				}
			},
			"storageLayout": {
				"storage": [
					{
						"astId": 10,
						"contract": "Basic Solidity/contracts/p.sol:PeopleStorage",
						"label": "people",
						"offset": 0,
						"slot": "0",
						"type": "t_array(t_struct(Person)6_storage)dyn_storage"
					},
					{
						"astId": 14,
						"contract": "Basic Solidity/contracts/p.sol:PeopleStorage",
						"label": "nameToFavoriteNumber",
						"offset": 0,
						"slot": "1",
						"type": "t_mapping(t_string_memory_ptr,t_uint256)"
					}
				],
				"types": {
					"t_array(t_struct(Person)6_storage)dyn_storage": {
						"base": "t_struct(Person)6_storage",
						"encoding": "dynamic_array",
						"label": "struct PeopleStorage.Person[]",
						"numberOfBytes": "32"
					},
					"t_mapping(t_string_memory_ptr,t_uint256)": {
						"encoding": "mapping",
						"key": "t_string_memory_ptr",
						"label": "mapping(string => uint256)",
						"numberOfBytes": "32",
						"value": "t_uint256"
					},
					"t_string_memory_ptr": {
						"encoding": "bytes",
						"label": "string",
						"numberOfBytes": "32"
					},
					"t_string_storage": {
						"encoding": "bytes",
						"label": "string",
						"numberOfBytes": "32"
					},
					"t_struct(Person)6_storage": {
						"encoding": "inplace",
						"label": "struct PeopleStorage.Person",
						"members": [
							{
								"astId": 3,
								"contract": "Basic Solidity/contracts/p.sol:PeopleStorage",
								"label": "favoriteNumber",
								"offset": 0,
								"slot": "0",
								"type": "t_uint256"
							},
							{
								"astId": 5,
								"contract": "Basic Solidity/contracts/p.sol:PeopleStorage",
								"label": "name",
								"offset": 0,
								"slot": "1",
								"type": "t_string_storage"
							}
						],
						"numberOfBytes": "64"
					},
					"t_uint256": {
						"encoding": "inplace",
						"label": "uint256",
						"numberOfBytes": "32"
					}
				}
			},
			"userdoc": {
				"kind": "user",
				"methods": {},
				"version": 1
			}
		}
	}
}